{
  "_format": "hh-sol-artifact-1",
  "contractName": "AgentRegistry",
  "sourceName": "contracts/AgentRegistry.sol",
  "abi": [
    {
      "inputs": [],
      "stateMutability": "nonpayable",
      "type": "constructor"
    },
    {
      "inputs": [],
      "name": "AgentNotFound",
      "type": "error"
    },
    {
      "inputs": [],
      "name": "InvalidPrice",
      "type": "error"
    },
    {
      "inputs": [],
      "name": "InvalidWallet",
      "type": "error"
    },
    {
      "inputs": [],
      "name": "NotAgentOwner",
      "type": "error"
    },
    {
      "inputs": [],
      "name": "OnlyRouter",
      "type": "error"
    },
    {
      "inputs": [
        {
          "internalType": "address",
          "name": "owner",
          "type": "address"
        }
      ],
      "name": "OwnableInvalidOwner",
      "type": "error"
    },
    {
      "inputs": [
        {
          "internalType": "address",
          "name": "account",
          "type": "address"
        }
      ],
      "name": "OwnableUnauthorizedAccount",
      "type": "error"
    },
    {
      "anonymous": false,
      "inputs": [
        {
          "indexed": true,
          "internalType": "uint256",
          "name": "agentId",
          "type": "uint256"
        },
        {
          "indexed": true,
          "internalType": "address",
          "name": "owner",
          "type": "address"
        },
        {
          "indexed": false,
          "internalType": "address",
          "name": "wallet",
          "type": "address"
        },
        {
          "indexed": false,
          "internalType": "uint256",
          "name": "pricePerCall",
          "type": "uint256"
        },
        {
          "indexed": false,
          "internalType": "string",
          "name": "metadataURI",
          "type": "string"
        }
      ],
      "name": "AgentRegistered",
      "type": "event"
    },
    {
      "anonymous": false,
      "inputs": [
        {
          "indexed": true,
          "internalType": "uint256",
          "name": "agentId",
          "type": "uint256"
        },
        {
          "indexed": false,
          "internalType": "uint256",
          "name": "newPrice",
          "type": "uint256"
        },
        {
          "indexed": false,
          "internalType": "bool",
          "name": "active",
          "type": "bool"
        },
        {
          "indexed": false,
          "internalType": "string",
          "name": "metadataURI",
          "type": "string"
        }
      ],
      "name": "AgentUpdated",
      "type": "event"
    },
    {
      "anonymous": false,
      "inputs": [
        {
          "indexed": true,
          "internalType": "address",
          "name": "previousOwner",
          "type": "address"
        },
        {
          "indexed": true,
          "internalType": "address",
          "name": "newOwner",
          "type": "address"
        }
      ],
      "name": "OwnershipTransferred",
      "type": "event"
    },
    {
      "inputs": [],
      "name": "agentCount",
      "outputs": [
        {
          "internalType": "uint256",
          "name": "",
          "type": "uint256"
        }
      ],
      "stateMutability": "view",
      "type": "function"
    },
    {
      "inputs": [
        {
          "internalType": "uint256",
          "name": "offset",
          "type": "uint256"
        },
        {
          "internalType": "uint256",
          "name": "limit",
          "type": "uint256"
        }
      ],
      "name": "getActiveAgents",
      "outputs": [
        {
          "internalType": "uint256[]",
          "name": "agentIds",
          "type": "uint256[]"
        },
        {
          "components": [
            {
              "internalType": "address",
              "name": "owner",
              "type": "address"
            },
            {
              "internalType": "address",
              "name": "wallet",
              "type": "address"
            },
            {
              "internalType": "uint256",
              "name": "pricePerCall",
              "type": "uint256"
            },
            {
              "internalType": "string",
              "name": "metadataURI",
              "type": "string"
            },
            {
              "internalType": "bool",
              "name": "active",
              "type": "bool"
            },
            {
              "internalType": "uint256",
              "name": "totalEarnings",
              "type": "uint256"
            },
            {
              "internalType": "uint256",
              "name": "totalJobs",
              "type": "uint256"
            }
          ],
          "internalType": "struct IAgentRegistry.Agent[]",
          "name": "agents",
          "type": "tuple[]"
        }
      ],
      "stateMutability": "view",
      "type": "function"
    },
    {
      "inputs": [
        {
          "internalType": "uint256",
          "name": "agentId",
          "type": "uint256"
        }
      ],
      "name": "getAgent",
      "outputs": [
        {
          "components": [
            {
              "internalType": "address",
              "name": "owner",
              "type": "address"
            },
            {
              "internalType": "address",
              "name": "wallet",
              "type": "address"
            },
            {
              "internalType": "uint256",
              "name": "pricePerCall",
              "type": "uint256"
            },
            {
              "internalType": "string",
              "name": "metadataURI",
              "type": "string"
            },
            {
              "internalType": "bool",
              "name": "active",
              "type": "bool"
            },
            {
              "internalType": "uint256",
              "name": "totalEarnings",
              "type": "uint256"
            },
            {
              "internalType": "uint256",
              "name": "totalJobs",
              "type": "uint256"
            }
          ],
          "internalType": "struct IAgentRegistry.Agent",
          "name": "",
          "type": "tuple"
        }
      ],
      "stateMutability": "view",
      "type": "function"
    },
    {
      "inputs": [
        {
          "internalType": "uint256",
          "name": "agentId",
          "type": "uint256"
        }
      ],
      "name": "getAgentOwner",
      "outputs": [
        {
          "internalType": "address",
          "name": "",
          "type": "address"
        }
      ],
      "stateMutability": "view",
      "type": "function"
    },
    {
      "inputs": [
        {
          "internalType": "uint256",
          "name": "agentId",
          "type": "uint256"
        }
      ],
      "name": "getAgentPrice",
      "outputs": [
        {
          "internalType": "uint256",
          "name": "",
          "type": "uint256"
        }
      ],
      "stateMutability": "view",
      "type": "function"
    },
    {
      "inputs": [
        {
          "internalType": "uint256",
          "name": "agentId",
          "type": "uint256"
        }
      ],
      "name": "getAgentWallet",
      "outputs": [
        {
          "internalType": "address",
          "name": "",
          "type": "address"
        }
      ],
      "stateMutability": "view",
      "type": "function"
    },
    {
      "inputs": [
        {
          "internalType": "uint256",
          "name": "offset",
          "type": "uint256"
        },
        {
          "internalType": "uint256",
          "name": "limit",
          "type": "uint256"
        }
      ],
      "name": "getAgents",
      "outputs": [
        {
          "components": [
            {
              "internalType": "address",
              "name": "owner",
              "type": "address"
            },
            {
              "internalType": "address",
              "name": "wallet",
              "type": "address"
            },
            {
              "internalType": "uint256",
              "name": "pricePerCall",
              "type": "uint256"
            },
            {
              "internalType": "string",
              "name": "metadataURI",
              "type": "string"
            },
            {
              "internalType": "bool",
              "name": "active",
              "type": "bool"
            },
            {
              "internalType": "uint256",
              "name": "totalEarnings",
              "type": "uint256"
            },
            {
              "internalType": "uint256",
              "name": "totalJobs",
              "type": "uint256"
            }
          ],
          "internalType": "struct IAgentRegistry.Agent[]",
          "name": "agents",
          "type": "tuple[]"
        },
        {
          "internalType": "uint256",
          "name": "total",
          "type": "uint256"
        }
      ],
      "stateMutability": "view",
      "type": "function"
    },
    {
      "inputs": [
        {
          "internalType": "address",
          "name": "owner",
          "type": "address"
        }
      ],
      "name": "getAgentsByOwner",
      "outputs": [
        {
          "internalType": "uint256[]",
          "name": "",
          "type": "uint256[]"
        }
      ],
      "stateMutability": "view",
      "type": "function"
    },
    {
      "inputs": [],
      "name": "getPlatformStats",
      "outputs": [
        {
          "internalType": "uint256",
          "name": "_agentCount",
          "type": "uint256"
        },
        {
          "internalType": "uint256",
          "name": "_totalEarnings",
          "type": "uint256"
        },
        {
          "internalType": "uint256",
          "name": "_totalJobs",
          "type": "uint256"
        }
      ],
      "stateMutability": "view",
      "type": "function"
    },
    {
      "inputs": [
        {
          "internalType": "uint256",
          "name": "agentId",
          "type": "uint256"
        },
        {
          "internalType": "uint256",
          "name": "earnings",
          "type": "uint256"
        }
      ],
      "name": "incrementAgentStats",
      "outputs": [],
      "stateMutability": "nonpayable",
      "type": "function"
    },
    {
      "inputs": [
        {
          "internalType": "uint256",
          "name": "agentId",
          "type": "uint256"
        }
      ],
      "name": "isAgentActive",
      "outputs": [
        {
          "internalType": "bool",
          "name": "",
          "type": "bool"
        }
      ],
      "stateMutability": "view",
      "type": "function"
    },
    {
      "inputs": [],
      "name": "owner",
      "outputs": [
        {
          "internalType": "address",
          "name": "",
          "type": "address"
        }
      ],
      "stateMutability": "view",
      "type": "function"
    },
    {
      "inputs": [
        {
          "internalType": "uint256",
          "name": "pricePerCall",
          "type": "uint256"
        },
        {
          "internalType": "string",
          "name": "metadataURI",
          "type": "string"
        },
        {
          "internalType": "address",
          "name": "wallet",
          "type": "address"
        }
      ],
      "name": "registerAgent",
      "outputs": [
        {
          "internalType": "uint256",
          "name": "agentId",
          "type": "uint256"
        }
      ],
      "stateMutability": "nonpayable",
      "type": "function"
    },
    {
      "inputs": [],
      "name": "renounceOwnership",
      "outputs": [],
      "stateMutability": "nonpayable",
      "type": "function"
    },
    {
      "inputs": [],
      "name": "router",
      "outputs": [
        {
          "internalType": "address",
          "name": "",
          "type": "address"
        }
      ],
      "stateMutability": "view",
      "type": "function"
    },
    {
      "inputs": [
        {
          "internalType": "address",
          "name": "_router",
          "type": "address"
        }
      ],
      "name": "setRouter",
      "outputs": [],
      "stateMutability": "nonpayable",
      "type": "function"
    },
    {
      "inputs": [],
      "name": "totalPlatformEarnings",
      "outputs": [
        {
          "internalType": "uint256",
          "name": "",
          "type": "uint256"
        }
      ],
      "stateMutability": "view",
      "type": "function"
    },
    {
      "inputs": [],
      "name": "totalPlatformJobs",
      "outputs": [
        {
          "internalType": "uint256",
          "name": "",
          "type": "uint256"
        }
      ],
      "stateMutability": "view",
      "type": "function"
    },
    {
      "inputs": [
        {
          "internalType": "address",
          "name": "newOwner",
          "type": "address"
        }
      ],
      "name": "transferOwnership",
      "outputs": [],
      "stateMutability": "nonpayable",
      "type": "function"
    },
    {
      "inputs": [
        {
          "internalType": "uint256",
          "name": "agentId",
          "type": "uint256"
        },
        {
          "internalType": "uint256",
          "name": "newPrice",
          "type": "uint256"
        },
        {
          "internalType": "bool",
          "name": "active",
          "type": "bool"
        },
        {
          "internalType": "string",
          "name": "metadataURI",
          "type": "string"
        }
      ],
      "name": "updateAgent",
      "outputs": [],
      "stateMutability": "nonpayable",
      "type": "function"
    }
  ],
  "bytecode": "0x608060405234801561001057600080fd5b50338061003757604051631e4fbdf760e01b81526000600482015260240160405180910390fd5b61004081610046565b50610096565b600080546001600160a01b038381166001600160a01b0319831681178455604051919092169283917f8be0079c531659141344cd1fd0a4f28419497f9722a3daafe3b4186f6b6457e09190a35050565b6115db806100a56000396000f3fe608060405234801561001057600080fd5b506004361061012b5760003560e01c80638da5cb5b116100ad578063be5d5d9b11610071578063be5d5d9b146102e1578063bfa4c5c114610302578063c0d786551461030b578063f2fde38b1461031e578063f887ea401461033157600080fd5b80638da5cb5b1461028257806393581fa414610293578063a68dd9c8146102a6578063a8e5b4d9146102cf578063b7dc1284146102d857600080fd5b806328046b5b116100f457806328046b5b146101f35780632de5aaf714610214578063392d2d8e146102345780635f5e6bc214610257578063715018a61461027a57600080fd5b8062339509146101305780630726196014610179578063136d88831461019a5780631ab6f888146101be5780631ecdadd3146101de575b600080fd5b61015c61013e366004610eff565b6000908152600560205260409020600101546001600160a01b031690565b6040516001600160a01b0390911681526020015b60405180910390f35b61018c610187366004610f18565b610344565b604051610170929190611073565b60015460035460045460408051938452602084019290925290820152606001610170565b6101d16101cc3660046110bd565b610694565b60405161017091906110df565b6101f16101ec366004610f18565b610700565b005b610206610201366004611134565b61079c565b604051908152602001610170565b610227610222366004610eff565b610970565b6040516101709190611192565b610247610242366004610eff565b610a7e565b6040519015158152602001610170565b610206610265366004610eff565b60009081526005602052604090206002015490565b6101f1610abb565b6000546001600160a01b031661015c565b6101f16102a13660046111a5565b610acf565b61015c6102b4366004610eff565b6000908152600560205260409020546001600160a01b031690565b61020660045481565b61020660015481565b6102f46102ef366004610f18565b610baf565b604051610170929190611214565b61020660035481565b6101f16103193660046110bd565b610dc4565b6101f161032c3660046110bd565b610dee565b60025461015c906001600160a01b031681565b6060806000805b6001548110156103b15760008181526005602052604090206004015460ff16801561038c57506000818152600560205260409020546001600160a01b031615155b1561039f578161039b8161124c565b9250505b806103a98161124c565b91505061034b565b508085106103fd57604080516000808252602082018181528284019093529091906103f2565b6103df610eae565b8152602001906001900390816103d75790505b50925092505061068d565b6000610409858761127b565b9050818111156104165750805b6000610422878361128e565b90508067ffffffffffffffff81111561043d5761043d611265565b604051908082528060200260200182016040528015610466578160200160208202803683370190505b5094508067ffffffffffffffff81111561048257610482611265565b6040519080825280602002602001820160405280156104bb57816020015b6104a8610eae565b8152602001906001900390816104a05790505b50935060008060005b600154811080156104d457508382105b156106865760008181526005602052604090206004015460ff16801561051057506000818152600560205260409020546001600160a01b031615155b1561067457898310610666578088838151811061052f5761052f6112a1565b602090810291909101810191909152600082815260058252604090819020815160e08101835281546001600160a01b03908116825260018301541693810193909352600281015491830191909152600381018054606084019190610592906112b7565b80601f01602080910402602001604051908101604052809291908181526020018280546105be906112b7565b801561060b5780601f106105e05761010080835404028352916020019161060b565b820191906000526020600020905b8154815290600101906020018083116105ee57829003601f168201915b5050509183525050600482015460ff161515602082015260058201546040820152600690910154606090910152875188908490811061064c5761064c6112a1565b602002602001018190525081806106629061124c565b9250505b826106708161124c565b9350505b8061067e8161124c565b9150506104c4565b5050505050505b9250929050565b6001600160a01b0381166000908152600660209081526040918290208054835181840281018401909452808452606093928301828280156106f457602002820191906000526020600020905b8154815260200190600101908083116106e0575b50505050509050919050565b6002546001600160a01b0316331461072b57604051639e41bdd760e01b815260040160405180910390fd5b6000828152600560208190526040822090810180549192849261074f90849061127b565b90915550506006810180549060006107668361124c565b9190505550816003600082825461077d919061127b565b9091555050600480549060006107928361124c565b9190505550505050565b6000846000036107be5760405162bfc92160e01b815260040160405180910390fd5b6001600160a01b0382166107e5576040516323455ba160e01b815260040160405180910390fd5b600180549060006107f58361124c565b9190505590506040518060e00160405280336001600160a01b03168152602001836001600160a01b0316815260200186815260200185858080601f0160208091040260200160405190810160405280939291908181526020018383808284376000920182905250938552505060016020808501829052604080860185905260609586018590528785526005825293849020865181546001600160a01b03199081166001600160a01b039283161783559288015193820180549093169316929092179055918401516002830155509082015160038201906108d59082611340565b50608082015160048201805460ff191691151591909117905560a0820151600582015560c09091015160069182015533600081815260209283526040808220805460018101825590835293909120909201839055905182907f059f30e9b9095433054e9bf02b8ddb966ba02e9599fda027e786b144626ff5ac906109609086908a908a908a90611400565b60405180910390a3949350505050565b610978610eae565b600082815260056020908152604091829020825160e08101845281546001600160a01b039081168252600183015416928101929092526002810154928201929092526003820180549192916060840191906109d2906112b7565b80601f01602080910402602001604051908101604052809291908181526020018280546109fe906112b7565b8015610a4b5780601f10610a2057610100808354040283529160200191610a4b565b820191906000526020600020905b815481529060010190602001808311610a2e57829003601f168201915b5050509183525050600482015460ff16151560208201526005820154604082015260069091015460609091015292915050565b60008181526005602052604081206004015460ff168015610ab557506000828152600560205260409020546001600160a01b031615155b92915050565b610ac3610e31565b610acd6000610e5e565b565b600085815260056020526040902080546001600160a01b0316610b055760405163e93ba22360e01b815260040160405180910390fd5b80546001600160a01b03163314610b2f57604051630e41dcbf60e21b815260040160405180910390fd5b8415610b3d57600281018590555b60048101805460ff19168515151790558115610b645760038101610b62838583611448565b505b857f0d3f97502010854f5e8f82e460b5e80c6927636a9ff5854f35b8e1e84b222da982600201548684600301604051610b9f93929190611509565b60405180910390a2505050505050565b600154606090808410610bf5576040805160008082526020820190925290610bed565b610bda610eae565b815260200190600190039081610bd25790505b50915061068d565b6000610c01848661127b565b905081811115610c0e5750805b6000610c1a868361128e565b90508067ffffffffffffffff811115610c3557610c35611265565b604051908082528060200260200182016040528015610c6e57816020015b610c5b610eae565b815260200190600190039081610c535790505b50935060005b81811015610dba5760056000610c8a838a61127b565b81526020808201929092526040908101600020815160e08101835281546001600160a01b03908116825260018301541693810193909352600281015491830191909152600381018054606084019190610ce2906112b7565b80601f0160208091040260200160405190810160405280929190818152602001828054610d0e906112b7565b8015610d5b5780601f10610d3057610100808354040283529160200191610d5b565b820191906000526020600020905b815481529060010190602001808311610d3e57829003601f168201915b5050509183525050600482015460ff1615156020820152600582015460408201526006909101546060909101528551869083908110610d9c57610d9c6112a1565b60200260200101819052508080610db29061124c565b915050610c74565b5050509250929050565b610dcc610e31565b600280546001600160a01b0319166001600160a01b0392909216919091179055565b610df6610e31565b6001600160a01b038116610e2557604051631e4fbdf760e01b8152600060048201526024015b60405180910390fd5b610e2e81610e5e565b50565b6000546001600160a01b03163314610acd5760405163118cdaa760e01b8152336004820152602401610e1c565b600080546001600160a01b038381166001600160a01b0319831681178455604051919092169283917f8be0079c531659141344cd1fd0a4f28419497f9722a3daafe3b4186f6b6457e09190a35050565b6040518060e0016040528060006001600160a01b0316815260200160006001600160a01b03168152602001600081526020016060815260200160001515815260200160008152602001600081525090565b600060208284031215610f1157600080fd5b5035919050565b60008060408385031215610f2b57600080fd5b50508035926020909101359150565b600081518084526020808501945080840160005b83811015610f6a57815187529582019590820190600101610f4e565b509495945050505050565b600060018060a01b03808351168452602081818501511681860152604084015160408601526060840151915060e0606086015281518060e087015260005b81811015610fd05783810183015187820161010001528201610fb3565b506101009250600083828801015260808501519150610ff3608087018315159052565b60a085015160a087015260c085015160c087015282601f19601f830116870101935050505092915050565b600081518084526020808501808196508360051b8101915082860160005b85811015611066578284038952611054848351610f75565b9885019893509084019060010161103c565b5091979650505050505050565b6040815260006110866040830185610f3a565b8281036020840152611098818561101e565b95945050505050565b80356001600160a01b03811681146110b857600080fd5b919050565b6000602082840312156110cf57600080fd5b6110d8826110a1565b9392505050565b6020815260006110d86020830184610f3a565b60008083601f84011261110457600080fd5b50813567ffffffffffffffff81111561111c57600080fd5b60208301915083602082850101111561068d57600080fd5b6000806000806060858703121561114a57600080fd5b84359350602085013567ffffffffffffffff81111561116857600080fd5b611174878288016110f2565b90945092506111879050604086016110a1565b905092959194509250565b6020815260006110d86020830184610f75565b6000806000806000608086880312156111bd57600080fd5b8535945060208601359350604086013580151581146111db57600080fd5b9250606086013567ffffffffffffffff8111156111f757600080fd5b611203888289016110f2565b969995985093965092949392505050565b604081526000611227604083018561101e565b90508260208301529392505050565b634e487b7160e01b600052601160045260246000fd5b60006001820161125e5761125e611236565b5060010190565b634e487b7160e01b600052604160045260246000fd5b80820180821115610ab557610ab5611236565b81810381811115610ab557610ab5611236565b634e487b7160e01b600052603260045260246000fd5b600181811c908216806112cb57607f821691505b6020821081036112eb57634e487b7160e01b600052602260045260246000fd5b50919050565b601f82111561133b57600081815260208120601f850160051c810160208610156113185750805b601f850160051c820191505b8181101561133757828155600101611324565b5050505b505050565b815167ffffffffffffffff81111561135a5761135a611265565b61136e8161136884546112b7565b846112f1565b602080601f8311600181146113a3576000841561138b5750858301515b600019600386901b1c1916600185901b178555611337565b600085815260208120601f198616915b828110156113d2578886015182559484019460019091019084016113b3565b50858210156113f05787850151600019600388901b60f8161c191681555b5050505050600190811b01905550565b6001600160a01b0385168152602081018490526060604082018190528101829052818360808301376000818301608090810191909152601f909201601f191601019392505050565b67ffffffffffffffff83111561146057611460611265565b6114748361146e83546112b7565b836112f1565b6000601f8411600181146114a857600085156114905750838201355b600019600387901b1c1916600186901b178355611502565b600083815260209020601f19861690835b828110156114d957868501358255602094850194600190920191016114b9565b50868210156114f65760001960f88860031b161c19848701351681555b505060018560011b0183555b5050505050565b8381526000602084151581840152606060408401526000845461152b816112b7565b806060870152608060018084166000811461154d576001811461156757611595565b60ff1985168984015283151560051b890183019550611595565b896000528660002060005b8581101561158d5781548b8201860152908301908801611572565b8a0184019650505b50939a995050505050505050505056fea26469706673582212208b2cfac6a650a374b6cfe8bbfcb1b1688baea977fcad8359f5be4ed5a39a468864736f6c63430008140033",
  "linkReferences": {},
  "deployedLinkReferences": {}
}