{
  "_format": "hh-sol-artifact-1",
  "contractName": "AgentEscrow",
  "sourceName": "contracts/AgentEscrow.sol",
  "abi": [
    {
      "inputs": [
        {
          "internalType": "address",
          "name": "_mneeToken",
          "type": "address"
        },
        {
          "internalType": "uint256",
          "name": "_jobTimeout",
          "type": "uint256"
        },
        {
          "internalType": "address",
          "name": "_platformTreasury",
          "type": "address"
        },
        {
          "internalType": "uint256",
          "name": "_platformFeeBps",
          "type": "uint256"
        }
      ],
      "stateMutability": "nonpayable",
      "type": "constructor"
    },
    {
      "inputs": [],
      "name": "FeeTooHigh",
      "type": "error"
    },
    {
      "inputs": [],
      "name": "InvalidTreasury",
      "type": "error"
    },
    {
      "inputs": [],
      "name": "JobNotExpired",
      "type": "error"
    },
    {
      "inputs": [],
      "name": "JobNotFound",
      "type": "error"
    },
    {
      "inputs": [],
      "name": "JobNotPending",
      "type": "error"
    },
    {
      "inputs": [],
      "name": "OnlyRouter",
      "type": "error"
    },
    {
      "inputs": [
        {
          "internalType": "address",
          "name": "owner",
          "type": "address"
        }
      ],
      "name": "OwnableInvalidOwner",
      "type": "error"
    },
    {
      "inputs": [
        {
          "internalType": "address",
          "name": "account",
          "type": "address"
        }
      ],
      "name": "OwnableUnauthorizedAccount",
      "type": "error"
    },
    {
      "inputs": [],
      "name": "ReentrancyGuardReentrantCall",
      "type": "error"
    },
    {
      "inputs": [
        {
          "internalType": "address",
          "name": "token",
          "type": "address"
        }
      ],
      "name": "SafeERC20FailedOperation",
      "type": "error"
    },
    {
      "anonymous": false,
      "inputs": [
        {
          "indexed": true,
          "internalType": "address",
          "name": "token",
          "type": "address"
        },
        {
          "indexed": true,
          "internalType": "address",
          "name": "to",
          "type": "address"
        },
        {
          "indexed": false,
          "internalType": "uint256",
          "name": "amount",
          "type": "uint256"
        }
      ],
      "name": "EmergencyWithdraw",
      "type": "event"
    },
    {
      "anonymous": false,
      "inputs": [
        {
          "indexed": true,
          "internalType": "bytes32",
          "name": "jobId",
          "type": "bytes32"
        },
        {
          "indexed": false,
          "internalType": "uint256",
          "name": "amount",
          "type": "uint256"
        }
      ],
      "name": "JobCompleted",
      "type": "event"
    },
    {
      "anonymous": false,
      "inputs": [
        {
          "indexed": true,
          "internalType": "bytes32",
          "name": "jobId",
          "type": "bytes32"
        },
        {
          "indexed": true,
          "internalType": "uint256",
          "name": "callerAgentId",
          "type": "uint256"
        },
        {
          "indexed": true,
          "internalType": "uint256",
          "name": "providerAgentId",
          "type": "uint256"
        },
        {
          "indexed": false,
          "internalType": "address",
          "name": "callerWallet",
          "type": "address"
        },
        {
          "indexed": false,
          "internalType": "uint256",
          "name": "amount",
          "type": "uint256"
        }
      ],
      "name": "JobCreated",
      "type": "event"
    },
    {
      "anonymous": false,
      "inputs": [
        {
          "indexed": true,
          "internalType": "bytes32",
          "name": "jobId",
          "type": "bytes32"
        },
        {
          "indexed": false,
          "internalType": "uint256",
          "name": "amount",
          "type": "uint256"
        }
      ],
      "name": "JobDisputed",
      "type": "event"
    },
    {
      "anonymous": false,
      "inputs": [
        {
          "indexed": true,
          "internalType": "bytes32",
          "name": "jobId",
          "type": "bytes32"
        },
        {
          "indexed": false,
          "internalType": "uint256",
          "name": "amount",
          "type": "uint256"
        }
      ],
      "name": "JobExpired",
      "type": "event"
    },
    {
      "anonymous": false,
      "inputs": [
        {
          "indexed": true,
          "internalType": "address",
          "name": "previousOwner",
          "type": "address"
        },
        {
          "indexed": true,
          "internalType": "address",
          "name": "newOwner",
          "type": "address"
        }
      ],
      "name": "OwnershipTransferred",
      "type": "event"
    },
    {
      "anonymous": false,
      "inputs": [
        {
          "indexed": true,
          "internalType": "bytes32",
          "name": "jobId",
          "type": "bytes32"
        },
        {
          "indexed": false,
          "internalType": "uint256",
          "name": "fee",
          "type": "uint256"
        }
      ],
      "name": "PlatformFeeCollected",
      "type": "event"
    },
    {
      "inputs": [
        {
          "internalType": "bytes32",
          "name": "jobId",
          "type": "bytes32"
        },
        {
          "internalType": "address",
          "name": "providerOwner",
          "type": "address"
        }
      ],
      "name": "completeJob",
      "outputs": [],
      "stateMutability": "nonpayable",
      "type": "function"
    },
    {
      "inputs": [
        {
          "internalType": "uint256",
          "name": "callerAgentId",
          "type": "uint256"
        },
        {
          "internalType": "uint256",
          "name": "providerAgentId",
          "type": "uint256"
        },
        {
          "internalType": "address",
          "name": "callerWallet",
          "type": "address"
        },
        {
          "internalType": "uint256",
          "name": "amount",
          "type": "uint256"
        }
      ],
      "name": "createJob",
      "outputs": [
        {
          "internalType": "bytes32",
          "name": "jobId",
          "type": "bytes32"
        }
      ],
      "stateMutability": "nonpayable",
      "type": "function"
    },
    {
      "inputs": [
        {
          "internalType": "bytes32",
          "name": "jobId",
          "type": "bytes32"
        }
      ],
      "name": "disputeJob",
      "outputs": [],
      "stateMutability": "nonpayable",
      "type": "function"
    },
    {
      "inputs": [
        {
          "internalType": "bytes32",
          "name": "jobId",
          "type": "bytes32"
        },
        {
          "internalType": "address",
          "name": "providerOwner",
          "type": "address"
        }
      ],
      "name": "emergencyCompleteJob",
      "outputs": [],
      "stateMutability": "nonpayable",
      "type": "function"
    },
    {
      "inputs": [
        {
          "internalType": "address",
          "name": "token",
          "type": "address"
        },
        {
          "internalType": "address",
          "name": "to",
          "type": "address"
        },
        {
          "internalType": "uint256",
          "name": "amount",
          "type": "uint256"
        }
      ],
      "name": "emergencyWithdraw",
      "outputs": [],
      "stateMutability": "nonpayable",
      "type": "function"
    },
    {
      "inputs": [
        {
          "internalType": "bytes32",
          "name": "jobId",
          "type": "bytes32"
        },
        {
          "internalType": "address",
          "name": "providerOwner",
          "type": "address"
        }
      ],
      "name": "expireJob",
      "outputs": [],
      "stateMutability": "nonpayable",
      "type": "function"
    },
    {
      "inputs": [],
      "name": "getEscrowBalance",
      "outputs": [
        {
          "internalType": "uint256",
          "name": "",
          "type": "uint256"
        }
      ],
      "stateMutability": "view",
      "type": "function"
    },
    {
      "inputs": [],
      "name": "getEscrowStats",
      "outputs": [
        {
          "internalType": "uint256",
          "name": "_totalCreated",
          "type": "uint256"
        },
        {
          "internalType": "uint256",
          "name": "_totalCompleted",
          "type": "uint256"
        },
        {
          "internalType": "uint256",
          "name": "_totalDisputed",
          "type": "uint256"
        },
        {
          "internalType": "uint256",
          "name": "_totalExpired",
          "type": "uint256"
        },
        {
          "internalType": "uint256",
          "name": "_pending",
          "type": "uint256"
        },
        {
          "internalType": "uint256",
          "name": "_escrowBalance",
          "type": "uint256"
        }
      ],
      "stateMutability": "view",
      "type": "function"
    },
    {
      "inputs": [
        {
          "internalType": "bytes32",
          "name": "jobId",
          "type": "bytes32"
        }
      ],
      "name": "getJob",
      "outputs": [
        {
          "components": [
            {
              "internalType": "uint256",
              "name": "callerAgentId",
              "type": "uint256"
            },
            {
              "internalType": "uint256",
              "name": "providerAgentId",
              "type": "uint256"
            },
            {
              "internalType": "address",
              "name": "callerWallet",
              "type": "address"
            },
            {
              "internalType": "uint256",
              "name": "amount",
              "type": "uint256"
            },
            {
              "internalType": "uint256",
              "name": "createdAt",
              "type": "uint256"
            },
            {
              "internalType": "enum IAgentEscrow.JobStatus",
              "name": "status",
              "type": "uint8"
            }
          ],
          "internalType": "struct IAgentEscrow.Job",
          "name": "",
          "type": "tuple"
        }
      ],
      "stateMutability": "view",
      "type": "function"
    },
    {
      "inputs": [],
      "name": "getPlatformStats",
      "outputs": [
        {
          "internalType": "address",
          "name": "_treasury",
          "type": "address"
        },
        {
          "internalType": "uint256",
          "name": "_feeBps",
          "type": "uint256"
        },
        {
          "internalType": "uint256",
          "name": "_totalCollected",
          "type": "uint256"
        }
      ],
      "stateMutability": "view",
      "type": "function"
    },
    {
      "inputs": [
        {
          "internalType": "bytes32",
          "name": "jobId",
          "type": "bytes32"
        }
      ],
      "name": "isJobExpired",
      "outputs": [
        {
          "internalType": "bool",
          "name": "",
          "type": "bool"
        }
      ],
      "stateMutability": "view",
      "type": "function"
    },
    {
      "inputs": [],
      "name": "jobTimeout",
      "outputs": [
        {
          "internalType": "uint256",
          "name": "",
          "type": "uint256"
        }
      ],
      "stateMutability": "view",
      "type": "function"
    },
    {
      "inputs": [],
      "name": "mneeToken",
      "outputs": [
        {
          "internalType": "contract IERC20",
          "name": "",
          "type": "address"
        }
      ],
      "stateMutability": "view",
      "type": "function"
    },
    {
      "inputs": [],
      "name": "owner",
      "outputs": [
        {
          "internalType": "address",
          "name": "",
          "type": "address"
        }
      ],
      "stateMutability": "view",
      "type": "function"
    },
    {
      "inputs": [],
      "name": "pendingJobsCount",
      "outputs": [
        {
          "internalType": "uint256",
          "name": "",
          "type": "uint256"
        }
      ],
      "stateMutability": "view",
      "type": "function"
    },
    {
      "inputs": [],
      "name": "platformFeeBps",
      "outputs": [
        {
          "internalType": "uint256",
          "name": "",
          "type": "uint256"
        }
      ],
      "stateMutability": "view",
      "type": "function"
    },
    {
      "inputs": [],
      "name": "platformTreasury",
      "outputs": [
        {
          "internalType": "address",
          "name": "",
          "type": "address"
        }
      ],
      "stateMutability": "view",
      "type": "function"
    },
    {
      "inputs": [],
      "name": "renounceOwnership",
      "outputs": [],
      "stateMutability": "nonpayable",
      "type": "function"
    },
    {
      "inputs": [],
      "name": "router",
      "outputs": [
        {
          "internalType": "address",
          "name": "",
          "type": "address"
        }
      ],
      "stateMutability": "view",
      "type": "function"
    },
    {
      "inputs": [
        {
          "internalType": "uint256",
          "name": "_newTimeout",
          "type": "uint256"
        }
      ],
      "name": "setJobTimeout",
      "outputs": [],
      "stateMutability": "nonpayable",
      "type": "function"
    },
    {
      "inputs": [
        {
          "internalType": "uint256",
          "name": "_feeBps",
          "type": "uint256"
        }
      ],
      "name": "setPlatformFeeBps",
      "outputs": [],
      "stateMutability": "nonpayable",
      "type": "function"
    },
    {
      "inputs": [
        {
          "internalType": "address",
          "name": "_treasury",
          "type": "address"
        }
      ],
      "name": "setPlatformTreasury",
      "outputs": [],
      "stateMutability": "nonpayable",
      "type": "function"
    },
    {
      "inputs": [
        {
          "internalType": "address",
          "name": "_router",
          "type": "address"
        }
      ],
      "name": "setRouter",
      "outputs": [],
      "stateMutability": "nonpayable",
      "type": "function"
    },
    {
      "inputs": [],
      "name": "totalJobsCompleted",
      "outputs": [
        {
          "internalType": "uint256",
          "name": "",
          "type": "uint256"
        }
      ],
      "stateMutability": "view",
      "type": "function"
    },
    {
      "inputs": [],
      "name": "totalJobsCreated",
      "outputs": [
        {
          "internalType": "uint256",
          "name": "",
          "type": "uint256"
        }
      ],
      "stateMutability": "view",
      "type": "function"
    },
    {
      "inputs": [],
      "name": "totalJobsDisputed",
      "outputs": [
        {
          "internalType": "uint256",
          "name": "",
          "type": "uint256"
        }
      ],
      "stateMutability": "view",
      "type": "function"
    },
    {
      "inputs": [],
      "name": "totalJobsExpired",
      "outputs": [
        {
          "internalType": "uint256",
          "name": "",
          "type": "uint256"
        }
      ],
      "stateMutability": "view",
      "type": "function"
    },
    {
      "inputs": [],
      "name": "totalPlatformFees",
      "outputs": [
        {
          "internalType": "uint256",
          "name": "",
          "type": "uint256"
        }
      ],
      "stateMutability": "view",
      "type": "function"
    },
    {
      "inputs": [
        {
          "internalType": "address",
          "name": "newOwner",
          "type": "address"
        }
      ],
      "name": "transferOwnership",
      "outputs": [],
      "stateMutability": "nonpayable",
      "type": "function"
    }
  ],
  "bytecode": "0x60a06040523480156200001157600080fd5b50604051620017073803806200170783398101604081905262000034916200010b565b33806200005b57604051631e4fbdf760e01b81526000600482015260240160405180910390fd5b62000066816200009e565b50600180556001600160a01b03938416608052600292909255600480546001600160a01b031916919093161790915560055562000154565b600080546001600160a01b038381166001600160a01b0319831681178455604051919092169283917f8be0079c531659141344cd1fd0a4f28419497f9722a3daafe3b4186f6b6457e09190a35050565b80516001600160a01b03811681146200010657600080fd5b919050565b600080600080608085870312156200012257600080fd5b6200012d85620000ee565b9350602085015192506200014460408601620000ee565b6060959095015193969295505050565b60805161155f620001a860003960008181610235015281816105e7015281816106750152818161082c015281816108ba0152818161096401528181610aa701528181610c120152610db6015261155f6000f3fe608060405234801561001057600080fd5b50600436106101cf5760003560e01c8063c129062d11610104578063e63ea408116100a2578063f729cf0d11610071578063f729cf0d146103df578063f887ea40146103ff578063fada7c7a14610412578063fd2d50061461041b57600080fd5b8063e63ea40814610383578063eac6b7b614610396578063ec111b53146103b9578063f2fde38b146103cc57600080fd5b8063d2889531116100de578063d288953114610355578063d3631fa51461035e578063e138818c14610367578063e4946feb1461037a57600080fd5b8063c129062d14610327578063c56e610e1461033a578063c580c9421461034257600080fd5b80638da5cb5b116101715780639cb10f011161014b5780639cb10f01146102b9578063acff2b09146102cc578063ba3f544314610301578063c0d786551461031457600080fd5b80638da5cb5b1461028c5780638ee0decf1461029d57806393503419146102a657600080fd5b80633098faaf116101ad5780633098faaf146102275780635b71474a14610230578063715018a61461026f5780637cd86d601461027957600080fd5b8063136d8883146101d457806322dcd13e1461020757806322ef57bd1461021e575b600080fd5b600454600554600654604080516001600160a01b0390941684526020840192909252908201526060015b60405180910390f35b61021060055481565b6040519081526020016101fe565b61021060075481565b610210600b5481565b6102577f000000000000000000000000000000000000000000000000000000000000000081565b6040516001600160a01b0390911681526020016101fe565b61027761042e565b005b61027761028736600461130c565b610442565b6000546001600160a01b0316610257565b61021060085481565b6102776102b4366004611327565b610493565b6102776102c7366004611327565b610710565b6102d461092b565b604080519687526020870195909552938501929092526060840152608083015260a082015260c0016101fe565b61027761030f366004611353565b6109e2565b61027761032236600461130c565b610b4f565b61021061033536600461136c565b610b79565b610210610d9e565b610277610350366004611353565b610e2e565b61021060025481565b61021060065481565b600454610257906001600160a01b031681565b610210600a5481565b6102776103913660046113a9565b610e5e565b6103a96103a4366004611353565b610fb6565b60405190151581526020016101fe565b6102776103c7366004611327565b611003565b6102776103da36600461130c565b61100b565b6103f26103ed366004611353565b611046565b6040516101fe91906113fb565b600354610257906001600160a01b031681565b61021060095481565b610277610429366004611353565b6110de565b6104366110eb565b6104406000611118565b565b61044a6110eb565b6001600160a01b038116610471576040516302979eb960e31b815260040160405180910390fd5b600480546001600160a01b0319166001600160a01b0392909216919091179055565b6003546001600160a01b031633146104be57604051639e41bdd760e01b815260040160405180910390fd5b6104c6611168565b6000828152600c6020526040902060028101546001600160a01b03166104ff5760405163c0a8563160e01b815260040160405180910390fd5b6000600582015460ff16600381111561051a5761051a6113e5565b14610538576040516304c0a3d560e01b815260040160405180910390fd5b600254816004015461054a919061147b565b42101561056a57604051630d9fd01160e41b815260040160405180910390fd5b6005810180546003919060ff19166001830217905550600061271060055483600301546105979190611494565b6105a191906114ab565b905060008183600301546105b591906114cd565b90506000821180156105d157506004546001600160a01b031615155b1561066157600454610610906001600160a01b037f00000000000000000000000000000000000000000000000000000000000000008116911684611192565b8160066000828254610622919061147b565b909155505060405182815285907ff45996501352220c0143bb7d4599e869f72ce0391bcdcf0c0ca59bd0810dd45a9060200160405180910390a2610668565b5060038201545b61069c6001600160a01b037f0000000000000000000000000000000000000000000000000000000000000000168583611192565b847ff452a84463ea8e1a7ac0a64252cf600ce6a20fbddac033c8fddc0a60672cff53826040516106ce91815260200190565b60405180910390a2600a80549060006106e6836114e0565b9091555050600b80549060006106fb836114f9565b919050555050505061070c60018055565b5050565b6003546001600160a01b0316331461073b57604051639e41bdd760e01b815260040160405180910390fd5b610743611168565b6000828152600c6020526040902060028101546001600160a01b031661077c5760405163c0a8563160e01b815260040160405180910390fd5b6000600582015460ff166003811115610797576107976113e5565b146107b5576040516304c0a3d560e01b815260040160405180910390fd5b6005818101805460ff19166001179055546003820154600091612710916107dc9190611494565b6107e691906114ab565b905060008183600301546107fa91906114cd565b905060008211801561081657506004546001600160a01b031615155b156108a657600454610855906001600160a01b037f00000000000000000000000000000000000000000000000000000000000000008116911684611192565b8160066000828254610867919061147b565b909155505060405182815285907ff45996501352220c0143bb7d4599e869f72ce0391bcdcf0c0ca59bd0810dd45a9060200160405180910390a26108ad565b5060038201545b6108e16001600160a01b037f0000000000000000000000000000000000000000000000000000000000000000168583611192565b847f9b5ed714c31dfcb1a9397710b6fc1842f37d94ab5dc0ccb528d9a2c97ea76f2a8260405161091391815260200190565b60405180910390a2600880549060006106e6836114e0565b600754600854600954600a54600b546040516370a0823160e01b8152306004820152600095869586958695869586956001600160a01b037f000000000000000000000000000000000000000000000000000000000000000016906370a0823190602401602060405180830381865afa1580156109ab573d6000803e3d6000fd5b505050506040513d601f19601f820116820180604052508101906109cf9190611510565b949b939a50919850965094509092509050565b6003546001600160a01b03163314610a0d57604051639e41bdd760e01b815260040160405180910390fd5b610a15611168565b6000818152600c6020526040902060028101546001600160a01b0316610a4e5760405163c0a8563160e01b815260040160405180910390fd5b6000600582015460ff166003811115610a6957610a696113e5565b14610a87576040516304c0a3d560e01b815260040160405180910390fd5b60058101805460ff191660029081179091558101546003820154610ada917f00000000000000000000000000000000000000000000000000000000000000006001600160a01b0390811692911690611192565b817f6e04aa702f9af7a9a398f10d27918152df25ac0cdc6d74321b9f7496374387a78260030154604051610b1091815260200190565b60405180910390a260098054906000610b28836114e0565b9091555050600b8054906000610b3d836114f9565b919050555050610b4c60018055565b50565b610b576110eb565b600380546001600160a01b0319166001600160a01b0392909216919091179055565b6003546000906001600160a01b03163314610ba757604051639e41bdd760e01b815260040160405180910390fd5b610baf611168565b604080514260208201526bffffffffffffffffffffffff19606086901b1691810191909152605481018590526074810186905244609482015260b40160408051601f1981840301815291905280516020909101209050610c3a6001600160a01b037f0000000000000000000000000000000000000000000000000000000000000000168430856111f1565b6040518060c00160405280868152602001858152602001846001600160a01b0316815260200183815260200142815260200160006003811115610c7f57610c7f6113e5565b815250600c6000838152602001908152602001600020600082015181600001556020820151816001015560408201518160020160006101000a8154816001600160a01b0302191690836001600160a01b03160217905550606082015181600301556080820151816004015560a08201518160050160006101000a81548160ff02191690836003811115610d1457610d146113e5565b021790555050604080516001600160a01b038616815260208101859052869250879184917f4bb7dd7251a0c55cdd1b69e96abaa7a2cd443dfeb6d6a908dd225848e6c5aa52910160405180910390a460078054906000610d73836114e0565b9091555050600b8054906000610d88836114e0565b9190505550610d9660018055565b949350505050565b6040516370a0823160e01b81523060048201526000907f00000000000000000000000000000000000000000000000000000000000000006001600160a01b0316906370a0823190602401602060405180830381865afa158015610e05573d6000803e3d6000fd5b505050506040513d601f19601f82011682018060405250810190610e299190611510565b905090565b610e366110eb565b6107d0811115610e595760405163cd4e616760e01b815260040160405180910390fd5b600555565b610e666110eb565b610e6e611168565b6001600160a01b038216610e95576040516302979eb960e31b815260040160405180910390fd5b6001600160a01b038316610f47576000826001600160a01b03168260405160006040518083038185875af1925050503d8060008114610ef0576040519150601f19603f3d011682016040523d82523d6000602084013e610ef5565b606091505b5050905080610f415760405162461bcd60e51b8152602060048201526013602482015272115512081d1c985b9cd9995c8819985a5b1959606a1b60448201526064015b60405180910390fd5b50610f5b565b610f5b6001600160a01b0384168383611192565b816001600160a01b0316836001600160a01b03167ff24ef89f38eadc1bde50701ad6e4d6d11a2dc24f7cf834a486991f388332850483604051610fa091815260200190565b60405180910390a3610fb160018055565b505050565b6000818152600c6020526040812081600582015460ff166003811115610fde57610fde6113e5565b148015610ffc57506002548160040154610ff8919061147b565b4210155b9392505050565b61073b6110eb565b6110136110eb565b6001600160a01b03811661103d57604051631e4fbdf760e01b815260006004820152602401610f38565b610b4c81611118565b61104e6112a1565b6000828152600c6020908152604091829020825160c0810184528154815260018201549281019290925260028101546001600160a01b031692820192909252600380830154606083015260048301546080830152600583015491929160a084019160ff909116908111156110c4576110c46113e5565b60038111156110d5576110d56113e5565b90525092915050565b6110e66110eb565b600255565b6000546001600160a01b031633146104405760405163118cdaa760e01b8152336004820152602401610f38565b600080546001600160a01b038381166001600160a01b0319831681178455604051919092169283917f8be0079c531659141344cd1fd0a4f28419497f9722a3daafe3b4186f6b6457e09190a35050565b60026001540361118b57604051633ee5aeb560e01b815260040160405180910390fd5b6002600155565b6040516001600160a01b03838116602483015260448201839052610fb191859182169063a9059cbb906064015b604051602081830303815290604052915060e01b6020820180516001600160e01b038381831617835250505050611230565b6040516001600160a01b03848116602483015283811660448301526064820183905261122a9186918216906323b872dd906084016111bf565b50505050565b600080602060008451602086016000885af180611253576040513d6000823e3d81fd5b50506000513d9150811561126b578060011415611278565b6001600160a01b0384163b155b1561122a57604051635274afe760e01b81526001600160a01b0385166004820152602401610f38565b6040518060c00160405280600081526020016000815260200160006001600160a01b031681526020016000815260200160008152602001600060038111156112eb576112eb6113e5565b905290565b80356001600160a01b038116811461130757600080fd5b919050565b60006020828403121561131e57600080fd5b610ffc826112f0565b6000806040838503121561133a57600080fd5b8235915061134a602084016112f0565b90509250929050565b60006020828403121561136557600080fd5b5035919050565b6000806000806080858703121561138257600080fd5b8435935060208501359250611399604086016112f0565b9396929550929360600135925050565b6000806000606084860312156113be57600080fd5b6113c7846112f0565b92506113d5602085016112f0565b9150604084013590509250925092565b634e487b7160e01b600052602160045260246000fd5b81518152602080830151908201526040808301516001600160a01b031690820152606080830151908201526080808301519082015260a082015160c08201906004811061145857634e487b7160e01b600052602160045260246000fd5b8060a08401525092915050565b634e487b7160e01b600052601160045260246000fd5b8082018082111561148e5761148e611465565b92915050565b808202811582820484141761148e5761148e611465565b6000826114c857634e487b7160e01b600052601260045260246000fd5b500490565b8181038181111561148e5761148e611465565b6000600182016114f2576114f2611465565b5060010190565b60008161150857611508611465565b506000190190565b60006020828403121561152257600080fd5b505191905056fea2646970667358221220d968e80789bfb44173bba0e767ace0145898957a9e57a7d1735a3df4e896190a64736f6c63430008140033",
  "linkReferences": {},
  "deployedLinkReferences": {}
}