{
  "address": "0xc3e5969E12D9B75E1E54A6f31ccA83FD8d56539C",
  "abi": [
    {
      "inputs": [
        {
          "internalType": "address",
          "name": "_mneeToken",
          "type": "address"
        },
        {
          "internalType": "uint256",
          "name": "_jobTimeout",
          "type": "uint256"
        }
      ],
      "stateMutability": "nonpayable",
      "type": "constructor"
    },
    {
      "inputs": [],
      "name": "JobNotExpired",
      "type": "error"
    },
    {
      "inputs": [],
      "name": "JobNotFound",
      "type": "error"
    },
    {
      "inputs": [],
      "name": "JobNotPending",
      "type": "error"
    },
    {
      "inputs": [],
      "name": "OnlyRouter",
      "type": "error"
    },
    {
      "inputs": [
        {
          "internalType": "address",
          "name": "owner",
          "type": "address"
        }
      ],
      "name": "OwnableInvalidOwner",
      "type": "error"
    },
    {
      "inputs": [
        {
          "internalType": "address",
          "name": "account",
          "type": "address"
        }
      ],
      "name": "OwnableUnauthorizedAccount",
      "type": "error"
    },
    {
      "inputs": [],
      "name": "ReentrancyGuardReentrantCall",
      "type": "error"
    },
    {
      "inputs": [
        {
          "internalType": "address",
          "name": "token",
          "type": "address"
        }
      ],
      "name": "SafeERC20FailedOperation",
      "type": "error"
    },
    {
      "anonymous": false,
      "inputs": [
        {
          "indexed": true,
          "internalType": "bytes32",
          "name": "jobId",
          "type": "bytes32"
        },
        {
          "indexed": false,
          "internalType": "uint256",
          "name": "amount",
          "type": "uint256"
        }
      ],
      "name": "JobCompleted",
      "type": "event"
    },
    {
      "anonymous": false,
      "inputs": [
        {
          "indexed": true,
          "internalType": "bytes32",
          "name": "jobId",
          "type": "bytes32"
        },
        {
          "indexed": true,
          "internalType": "uint256",
          "name": "callerAgentId",
          "type": "uint256"
        },
        {
          "indexed": true,
          "internalType": "uint256",
          "name": "providerAgentId",
          "type": "uint256"
        },
        {
          "indexed": false,
          "internalType": "address",
          "name": "callerWallet",
          "type": "address"
        },
        {
          "indexed": false,
          "internalType": "uint256",
          "name": "amount",
          "type": "uint256"
        }
      ],
      "name": "JobCreated",
      "type": "event"
    },
    {
      "anonymous": false,
      "inputs": [
        {
          "indexed": true,
          "internalType": "bytes32",
          "name": "jobId",
          "type": "bytes32"
        },
        {
          "indexed": false,
          "internalType": "uint256",
          "name": "amount",
          "type": "uint256"
        }
      ],
      "name": "JobDisputed",
      "type": "event"
    },
    {
      "anonymous": false,
      "inputs": [
        {
          "indexed": true,
          "internalType": "bytes32",
          "name": "jobId",
          "type": "bytes32"
        },
        {
          "indexed": false,
          "internalType": "uint256",
          "name": "amount",
          "type": "uint256"
        }
      ],
      "name": "JobExpired",
      "type": "event"
    },
    {
      "anonymous": false,
      "inputs": [
        {
          "indexed": true,
          "internalType": "address",
          "name": "previousOwner",
          "type": "address"
        },
        {
          "indexed": true,
          "internalType": "address",
          "name": "newOwner",
          "type": "address"
        }
      ],
      "name": "OwnershipTransferred",
      "type": "event"
    },
    {
      "inputs": [
        {
          "internalType": "bytes32",
          "name": "jobId",
          "type": "bytes32"
        },
        {
          "internalType": "address",
          "name": "providerOwner",
          "type": "address"
        }
      ],
      "name": "completeJob",
      "outputs": [],
      "stateMutability": "nonpayable",
      "type": "function"
    },
    {
      "inputs": [
        {
          "internalType": "uint256",
          "name": "callerAgentId",
          "type": "uint256"
        },
        {
          "internalType": "uint256",
          "name": "providerAgentId",
          "type": "uint256"
        },
        {
          "internalType": "address",
          "name": "callerWallet",
          "type": "address"
        },
        {
          "internalType": "uint256",
          "name": "amount",
          "type": "uint256"
        }
      ],
      "name": "createJob",
      "outputs": [
        {
          "internalType": "bytes32",
          "name": "jobId",
          "type": "bytes32"
        }
      ],
      "stateMutability": "nonpayable",
      "type": "function"
    },
    {
      "inputs": [
        {
          "internalType": "bytes32",
          "name": "jobId",
          "type": "bytes32"
        }
      ],
      "name": "disputeJob",
      "outputs": [],
      "stateMutability": "nonpayable",
      "type": "function"
    },
    {
      "inputs": [
        {
          "internalType": "bytes32",
          "name": "jobId",
          "type": "bytes32"
        },
        {
          "internalType": "address",
          "name": "providerOwner",
          "type": "address"
        }
      ],
      "name": "expireJob",
      "outputs": [],
      "stateMutability": "nonpayable",
      "type": "function"
    },
    {
      "inputs": [],
      "name": "getEscrowBalance",
      "outputs": [
        {
          "internalType": "uint256",
          "name": "",
          "type": "uint256"
        }
      ],
      "stateMutability": "view",
      "type": "function"
    },
    {
      "inputs": [],
      "name": "getEscrowStats",
      "outputs": [
        {
          "internalType": "uint256",
          "name": "_totalCreated",
          "type": "uint256"
        },
        {
          "internalType": "uint256",
          "name": "_totalCompleted",
          "type": "uint256"
        },
        {
          "internalType": "uint256",
          "name": "_totalDisputed",
          "type": "uint256"
        },
        {
          "internalType": "uint256",
          "name": "_totalExpired",
          "type": "uint256"
        },
        {
          "internalType": "uint256",
          "name": "_pending",
          "type": "uint256"
        },
        {
          "internalType": "uint256",
          "name": "_escrowBalance",
          "type": "uint256"
        }
      ],
      "stateMutability": "view",
      "type": "function"
    },
    {
      "inputs": [
        {
          "internalType": "bytes32",
          "name": "jobId",
          "type": "bytes32"
        }
      ],
      "name": "getJob",
      "outputs": [
        {
          "components": [
            {
              "internalType": "uint256",
              "name": "callerAgentId",
              "type": "uint256"
            },
            {
              "internalType": "uint256",
              "name": "providerAgentId",
              "type": "uint256"
            },
            {
              "internalType": "address",
              "name": "callerWallet",
              "type": "address"
            },
            {
              "internalType": "uint256",
              "name": "amount",
              "type": "uint256"
            },
            {
              "internalType": "uint256",
              "name": "createdAt",
              "type": "uint256"
            },
            {
              "internalType": "enum IAgentEscrow.JobStatus",
              "name": "status",
              "type": "uint8"
            }
          ],
          "internalType": "struct IAgentEscrow.Job",
          "name": "",
          "type": "tuple"
        }
      ],
      "stateMutability": "view",
      "type": "function"
    },
    {
      "inputs": [
        {
          "internalType": "bytes32",
          "name": "jobId",
          "type": "bytes32"
        }
      ],
      "name": "isJobExpired",
      "outputs": [
        {
          "internalType": "bool",
          "name": "",
          "type": "bool"
        }
      ],
      "stateMutability": "view",
      "type": "function"
    },
    {
      "inputs": [],
      "name": "jobTimeout",
      "outputs": [
        {
          "internalType": "uint256",
          "name": "",
          "type": "uint256"
        }
      ],
      "stateMutability": "view",
      "type": "function"
    },
    {
      "inputs": [],
      "name": "mneeToken",
      "outputs": [
        {
          "internalType": "contract IERC20",
          "name": "",
          "type": "address"
        }
      ],
      "stateMutability": "view",
      "type": "function"
    },
    {
      "inputs": [],
      "name": "owner",
      "outputs": [
        {
          "internalType": "address",
          "name": "",
          "type": "address"
        }
      ],
      "stateMutability": "view",
      "type": "function"
    },
    {
      "inputs": [],
      "name": "pendingJobsCount",
      "outputs": [
        {
          "internalType": "uint256",
          "name": "",
          "type": "uint256"
        }
      ],
      "stateMutability": "view",
      "type": "function"
    },
    {
      "inputs": [],
      "name": "renounceOwnership",
      "outputs": [],
      "stateMutability": "nonpayable",
      "type": "function"
    },
    {
      "inputs": [],
      "name": "router",
      "outputs": [
        {
          "internalType": "address",
          "name": "",
          "type": "address"
        }
      ],
      "stateMutability": "view",
      "type": "function"
    },
    {
      "inputs": [
        {
          "internalType": "uint256",
          "name": "_newTimeout",
          "type": "uint256"
        }
      ],
      "name": "setJobTimeout",
      "outputs": [],
      "stateMutability": "nonpayable",
      "type": "function"
    },
    {
      "inputs": [
        {
          "internalType": "address",
          "name": "_router",
          "type": "address"
        }
      ],
      "name": "setRouter",
      "outputs": [],
      "stateMutability": "nonpayable",
      "type": "function"
    },
    {
      "inputs": [],
      "name": "totalJobsCompleted",
      "outputs": [
        {
          "internalType": "uint256",
          "name": "",
          "type": "uint256"
        }
      ],
      "stateMutability": "view",
      "type": "function"
    },
    {
      "inputs": [],
      "name": "totalJobsCreated",
      "outputs": [
        {
          "internalType": "uint256",
          "name": "",
          "type": "uint256"
        }
      ],
      "stateMutability": "view",
      "type": "function"
    },
    {
      "inputs": [],
      "name": "totalJobsDisputed",
      "outputs": [
        {
          "internalType": "uint256",
          "name": "",
          "type": "uint256"
        }
      ],
      "stateMutability": "view",
      "type": "function"
    },
    {
      "inputs": [],
      "name": "totalJobsExpired",
      "outputs": [
        {
          "internalType": "uint256",
          "name": "",
          "type": "uint256"
        }
      ],
      "stateMutability": "view",
      "type": "function"
    },
    {
      "inputs": [
        {
          "internalType": "address",
          "name": "newOwner",
          "type": "address"
        }
      ],
      "name": "transferOwnership",
      "outputs": [],
      "stateMutability": "nonpayable",
      "type": "function"
    }
  ],
  "transactionHash": "0xcc0eb61d013bb4bc3ad3cf5d2211cb9acaf29ed4a8ae7b47e4d2782d6a9f7738",
  "args": [
    "0xC18aCB0C4bBDB8c176C4328BD5fB3d9978A9A279",
    3600
  ],
  "numDeployments": 1,
  "solcInputHash": "a74805a8d96f85b25e8283ef2000433d",
  "bytecode": "0x60a060405234801561001057600080fd5b5060405161115e38038061115e83398101604081905261002f916100c9565b338061005557604051631e4fbdf760e01b81526000600482015260240160405180910390fd5b61005e81610079565b50600180556001600160a01b03909116608052600255610103565b600080546001600160a01b038381166001600160a01b0319831681178455604051919092169283917f8be0079c531659141344cd1fd0a4f28419497f9722a3daafe3b4186f6b6457e09190a35050565b600080604083850312156100dc57600080fd5b82516001600160a01b03811681146100f357600080fd5b6020939093015192949293505050565b60805161101661014860003960008181610166015281816103fd01528181610562015281816105fa0152818161076c015281816108d70152610a7b01526110166000f3fe608060405234801561001057600080fd5b50600436106101375760003560e01c8063c0d78655116100b8578063eac6b7b61161007c578063eac6b7b614610272578063f2fde38b14610295578063f729cf0d146102a8578063f887ea40146102c8578063fada7c7a146102db578063fd2d5006146102e457600080fd5b8063c0d7865514610232578063c129062d14610245578063c56e610e14610258578063d288953114610260578063e4946feb1461026957600080fd5b80638ee0decf116100ff5780638ee0decf146101bb57806393503419146101c45780639cb10f01146101d7578063acff2b09146101ea578063ba3f54431461021f57600080fd5b806322ef57bd1461013c5780633098faaf146101585780635b71474a14610161578063715018a6146101a05780638da5cb5b146101aa575b600080fd5b61014560045481565b6040519081526020015b60405180910390f35b61014560085481565b6101887f000000000000000000000000000000000000000000000000000000000000000081565b6040516001600160a01b03909116815260200161014f565b6101a86102f7565b005b6000546001600160a01b0316610188565b61014560055481565b6101a86101d2366004610e4b565b61030b565b6101a86101e5366004610e4b565b6104a3565b6101f26105e0565b604080519687526020870195909552938501929092526060840152608083015260a082015260c00161014f565b6101a861022d366004610e77565b6106a7565b6101a8610240366004610e90565b610814565b610145610253366004610eab565b61083e565b610145610a63565b61014560025481565b61014560075481565b610285610280366004610e77565b610af3565b604051901515815260200161014f565b6101a86102a3366004610e90565b610b40565b6102bb6102b6366004610e77565b610b80565b60405161014f9190610efe565b600354610188906001600160a01b031681565b61014560065481565b6101a86102f2366004610e77565b610c18565b6102ff610c25565b6103096000610c52565b565b6003546001600160a01b0316331461033657604051639e41bdd760e01b815260040160405180910390fd5b61033e610ca2565b600082815260096020526040902060028101546001600160a01b03166103775760405163c0a8563160e01b815260040160405180910390fd5b6000600582015460ff16600381111561039257610392610ee8565b146103b0576040516304c0a3d560e01b815260040160405180910390fd5b60025481600401546103c29190610f7e565b4210156103e257604051630d9fd01160e41b815260040160405180910390fd5b60058101805460ff1916600390811790915581015461042d907f00000000000000000000000000000000000000000000000000000000000000006001600160a01b0316908490610ccc565b827ff452a84463ea8e1a7ac0a64252cf600ce6a20fbddac033c8fddc0a60672cff53826003015460405161046391815260200190565b60405180910390a26007805490600061047b83610f97565b90915550506008805490600061049083610fb0565b91905055505061049f60018055565b5050565b6003546001600160a01b031633146104ce57604051639e41bdd760e01b815260040160405180910390fd5b6104d6610ca2565b600082815260096020526040902060028101546001600160a01b031661050f5760405163c0a8563160e01b815260040160405180910390fd5b6000600582015460ff16600381111561052a5761052a610ee8565b14610548576040516304c0a3d560e01b815260040160405180910390fd5b60058101805460ff191660011790556003810154610592907f00000000000000000000000000000000000000000000000000000000000000006001600160a01b0316908490610ccc565b827f9b5ed714c31dfcb1a9397710b6fc1842f37d94ab5dc0ccb528d9a2c97ea76f2a82600301546040516105c891815260200190565b60405180910390a26005805490600061047b83610f97565b6000806000806000806004546005546006546007546008547f00000000000000000000000000000000000000000000000000000000000000006001600160a01b03166370a08231306040518263ffffffff1660e01b815260040161065391906001600160a01b0391909116815260200190565b602060405180830381865afa158015610670573d6000803e3d6000fd5b505050506040513d601f19601f820116820180604052508101906106949190610fc7565b949b939a50919850965094509092509050565b6003546001600160a01b031633146106d257604051639e41bdd760e01b815260040160405180910390fd5b6106da610ca2565b600081815260096020526040902060028101546001600160a01b03166107135760405163c0a8563160e01b815260040160405180910390fd5b6000600582015460ff16600381111561072e5761072e610ee8565b1461074c576040516304c0a3d560e01b815260040160405180910390fd5b60058101805460ff19166002908117909155810154600382015461079f917f00000000000000000000000000000000000000000000000000000000000000006001600160a01b0390811692911690610ccc565b817f6e04aa702f9af7a9a398f10d27918152df25ac0cdc6d74321b9f7496374387a782600301546040516107d591815260200190565b60405180910390a2600680549060006107ed83610f97565b90915550506008805490600061080283610fb0565b91905055505061081160018055565b50565b61081c610c25565b600380546001600160a01b0319166001600160a01b0392909216919091179055565b6003546000906001600160a01b0316331461086c57604051639e41bdd760e01b815260040160405180910390fd5b610874610ca2565b604080514260208201526bffffffffffffffffffffffff19606086901b1691810191909152605481018590526074810186905244609482015260b40160408051601f19818403018152919052805160209091012090506108ff6001600160a01b037f000000000000000000000000000000000000000000000000000000000000000016843085610d30565b6040518060c00160405280868152602001858152602001846001600160a01b031681526020018381526020014281526020016000600381111561094457610944610ee8565b81525060096000838152602001908152602001600020600082015181600001556020820151816001015560408201518160020160006101000a8154816001600160a01b0302191690836001600160a01b03160217905550606082015181600301556080820151816004015560a08201518160050160006101000a81548160ff021916908360038111156109d9576109d9610ee8565b021790555050604080516001600160a01b038616815260208101859052869250879184917f4bb7dd7251a0c55cdd1b69e96abaa7a2cd443dfeb6d6a908dd225848e6c5aa52910160405180910390a460048054906000610a3883610f97565b909155505060088054906000610a4d83610f97565b9190505550610a5b60018055565b949350505050565b6040516370a0823160e01b81523060048201526000907f00000000000000000000000000000000000000000000000000000000000000006001600160a01b0316906370a0823190602401602060405180830381865afa158015610aca573d6000803e3d6000fd5b505050506040513d601f19601f82011682018060405250810190610aee9190610fc7565b905090565b600081815260096020526040812081600582015460ff166003811115610b1b57610b1b610ee8565b148015610b3957506002548160040154610b359190610f7e565b4210155b9392505050565b610b48610c25565b6001600160a01b038116610b7757604051631e4fbdf760e01b8152600060048201526024015b60405180910390fd5b61081181610c52565b610b88610de0565b600082815260096020908152604091829020825160c0810184528154815260018201549281019290925260028101546001600160a01b031692820192909252600380830154606083015260048301546080830152600583015491929160a084019160ff90911690811115610bfe57610bfe610ee8565b6003811115610c0f57610c0f610ee8565b90525092915050565b610c20610c25565b600255565b6000546001600160a01b031633146103095760405163118cdaa760e01b8152336004820152602401610b6e565b600080546001600160a01b038381166001600160a01b0319831681178455604051919092169283917f8be0079c531659141344cd1fd0a4f28419497f9722a3daafe3b4186f6b6457e09190a35050565b600260015403610cc557604051633ee5aeb560e01b815260040160405180910390fd5b6002600155565b6040516001600160a01b03838116602483015260448201839052610d2b91859182169063a9059cbb906064015b604051602081830303815290604052915060e01b6020820180516001600160e01b038381831617835250505050610d6f565b505050565b6040516001600160a01b038481166024830152838116604483015260648201839052610d699186918216906323b872dd90608401610cf9565b50505050565b600080602060008451602086016000885af180610d92576040513d6000823e3d81fd5b50506000513d91508115610daa578060011415610db7565b6001600160a01b0384163b155b15610d6957604051635274afe760e01b81526001600160a01b0385166004820152602401610b6e565b6040518060c00160405280600081526020016000815260200160006001600160a01b03168152602001600081526020016000815260200160006003811115610e2a57610e2a610ee8565b905290565b80356001600160a01b0381168114610e4657600080fd5b919050565b60008060408385031215610e5e57600080fd5b82359150610e6e60208401610e2f565b90509250929050565b600060208284031215610e8957600080fd5b5035919050565b600060208284031215610ea257600080fd5b610b3982610e2f565b60008060008060808587031215610ec157600080fd5b8435935060208501359250610ed860408601610e2f565b9396929550929360600135925050565b634e487b7160e01b600052602160045260246000fd5b81518152602080830151908201526040808301516001600160a01b031690820152606080830151908201526080808301519082015260a082015160c082019060048110610f5b57634e487b7160e01b600052602160045260246000fd5b8060a08401525092915050565b634e487b7160e01b600052601160045260246000fd5b80820180821115610f9157610f91610f68565b92915050565b600060018201610fa957610fa9610f68565b5060010190565b600081610fbf57610fbf610f68565b506000190190565b600060208284031215610fd957600080fd5b505191905056fea26469706673582212201e1284c37bc61ab293978a8302ffb9dae83d9a3c894e8229704ddc18b008afcc64736f6c63430008140033",
  "devdoc": {
    "details": "Locks funds, releases on confirmation, refunds on dispute",
    "errors": {
      "OwnableInvalidOwner(address)": [
        {
          "details": "The owner is not a valid owner account. (eg. `address(0)`)"
        }
      ],
      "OwnableUnauthorizedAccount(address)": [
        {
          "details": "The caller account is not authorized to perform an operation."
        }
      ],
      "ReentrancyGuardReentrantCall()": [
        {
          "details": "Unauthorized reentrant call."
        }
      ],
      "SafeERC20FailedOperation(address)": [
        {
          "details": "An operation with an ERC-20 token failed."
        }
      ]
    },
    "kind": "dev",
    "methods": {
      "completeJob(bytes32,address)": {
        "params": {
          "jobId": "ID of the job",
          "providerOwner": "Address to receive the funds"
        }
      },
      "constructor": {
        "params": {
          "_jobTimeout": "Timeout duration in seconds",
          "_mneeToken": "Address of the MNEE ERC20 token"
        }
      },
      "createJob(uint256,uint256,address,uint256)": {
        "params": {
          "amount": "Amount of MNEE to lock",
          "callerAgentId": "ID of the calling agent",
          "callerWallet": "Address that is paying",
          "providerAgentId": "ID of the provider agent"
        },
        "returns": {
          "jobId": "Unique job identifier"
        }
      },
      "disputeJob(bytes32)": {
        "params": {
          "jobId": "ID of the job"
        }
      },
      "expireJob(bytes32,address)": {
        "params": {
          "jobId": "ID of the job",
          "providerOwner": "Address to receive the funds"
        }
      },
      "getEscrowBalance()": {
        "returns": {
          "_0": "balance Amount of MNEE held in escrow"
        }
      },
      "getEscrowStats()": {
        "returns": {
          "_escrowBalance": "Current MNEE in escrow",
          "_pending": "Current pending jobs",
          "_totalCompleted": "Total jobs completed",
          "_totalCreated": "Total jobs ever created",
          "_totalDisputed": "Total jobs disputed",
          "_totalExpired": "Total jobs expired"
        }
      },
      "owner()": {
        "details": "Returns the address of the current owner."
      },
      "renounceOwnership()": {
        "details": "Leaves the contract without owner. It will not be possible to call `onlyOwner` functions. Can only be called by the current owner. NOTE: Renouncing ownership will leave the contract without an owner, thereby disabling any functionality that is only available to the owner."
      },
      "setJobTimeout(uint256)": {
        "params": {
          "_newTimeout": "New timeout in seconds"
        }
      },
      "setRouter(address)": {
        "params": {
          "_router": "Address of the AgentRouter contract"
        }
      },
      "transferOwnership(address)": {
        "details": "Transfers ownership of the contract to a new account (`newOwner`). Can only be called by the current owner."
      }
    },
    "title": "AgentEscrow",
    "version": 1
  },
  "userdoc": {
    "kind": "user",
    "methods": {
      "completeJob(bytes32,address)": {
        "notice": "Complete a job and release funds to provider"
      },
      "constructor": {
        "notice": "Initialize escrow with MNEE token and timeout"
      },
      "createJob(uint256,uint256,address,uint256)": {
        "notice": "Create a new job and lock MNEE"
      },
      "disputeJob(bytes32)": {
        "notice": "Dispute a job and refund caller"
      },
      "expireJob(bytes32,address)": {
        "notice": "Expire a job and release to provider (after timeout)"
      },
      "getEscrowBalance()": {
        "notice": "Get current MNEE balance locked in escrow"
      },
      "getEscrowStats()": {
        "notice": "Get escrow statistics"
      },
      "setJobTimeout(uint256)": {
        "notice": "Update job timeout"
      },
      "setRouter(address)": {
        "notice": "Set the router address"
      }
    },
    "notice": "Handles MNEE payment escrow for agent services",
    "version": 1
  },
  "storageLayout": {
    "storage": [
      {
        "astId": 8,
        "contract": "contracts/AgentEscrow.sol:AgentEscrow",
        "label": "_owner",
        "offset": 0,
        "slot": "0",
        "type": "t_address"
      },
      {
        "astId": 820,
        "contract": "contracts/AgentEscrow.sol:AgentEscrow",
        "label": "_status",
        "offset": 0,
        "slot": "1",
        "type": "t_uint256"
      },
      {
        "astId": 913,
        "contract": "contracts/AgentEscrow.sol:AgentEscrow",
        "label": "jobTimeout",
        "offset": 0,
        "slot": "2",
        "type": "t_uint256"
      },
      {
        "astId": 915,
        "contract": "contracts/AgentEscrow.sol:AgentEscrow",
        "label": "router",
        "offset": 0,
        "slot": "3",
        "type": "t_address"
      },
      {
        "astId": 917,
        "contract": "contracts/AgentEscrow.sol:AgentEscrow",
        "label": "totalJobsCreated",
        "offset": 0,
        "slot": "4",
        "type": "t_uint256"
      },
      {
        "astId": 919,
        "contract": "contracts/AgentEscrow.sol:AgentEscrow",
        "label": "totalJobsCompleted",
        "offset": 0,
        "slot": "5",
        "type": "t_uint256"
      },
      {
        "astId": 921,
        "contract": "contracts/AgentEscrow.sol:AgentEscrow",
        "label": "totalJobsDisputed",
        "offset": 0,
        "slot": "6",
        "type": "t_uint256"
      },
      {
        "astId": 923,
        "contract": "contracts/AgentEscrow.sol:AgentEscrow",
        "label": "totalJobsExpired",
        "offset": 0,
        "slot": "7",
        "type": "t_uint256"
      },
      {
        "astId": 925,
        "contract": "contracts/AgentEscrow.sol:AgentEscrow",
        "label": "pendingJobsCount",
        "offset": 0,
        "slot": "8",
        "type": "t_uint256"
      },
      {
        "astId": 930,
        "contract": "contracts/AgentEscrow.sol:AgentEscrow",
        "label": "_jobs",
        "offset": 0,
        "slot": "9",
        "type": "t_mapping(t_bytes32,t_struct(Job)2455_storage)"
      }
    ],
    "types": {
      "t_address": {
        "encoding": "inplace",
        "label": "address",
        "numberOfBytes": "20"
      },
      "t_bytes32": {
        "encoding": "inplace",
        "label": "bytes32",
        "numberOfBytes": "32"
      },
      "t_enum(JobStatus)2441": {
        "encoding": "inplace",
        "label": "enum IAgentEscrow.JobStatus",
        "numberOfBytes": "1"
      },
      "t_mapping(t_bytes32,t_struct(Job)2455_storage)": {
        "encoding": "mapping",
        "key": "t_bytes32",
        "label": "mapping(bytes32 => struct IAgentEscrow.Job)",
        "numberOfBytes": "32",
        "value": "t_struct(Job)2455_storage"
      },
      "t_struct(Job)2455_storage": {
        "encoding": "inplace",
        "label": "struct IAgentEscrow.Job",
        "members": [
          {
            "astId": 2443,
            "contract": "contracts/AgentEscrow.sol:AgentEscrow",
            "label": "callerAgentId",
            "offset": 0,
            "slot": "0",
            "type": "t_uint256"
          },
          {
            "astId": 2445,
            "contract": "contracts/AgentEscrow.sol:AgentEscrow",
            "label": "providerAgentId",
            "offset": 0,
            "slot": "1",
            "type": "t_uint256"
          },
          {
            "astId": 2447,
            "contract": "contracts/AgentEscrow.sol:AgentEscrow",
            "label": "callerWallet",
            "offset": 0,
            "slot": "2",
            "type": "t_address"
          },
          {
            "astId": 2449,
            "contract": "contracts/AgentEscrow.sol:AgentEscrow",
            "label": "amount",
            "offset": 0,
            "slot": "3",
            "type": "t_uint256"
          },
          {
            "astId": 2451,
            "contract": "contracts/AgentEscrow.sol:AgentEscrow",
            "label": "createdAt",
            "offset": 0,
            "slot": "4",
            "type": "t_uint256"
          },
          {
            "astId": 2454,
            "contract": "contracts/AgentEscrow.sol:AgentEscrow",
            "label": "status",
            "offset": 0,
            "slot": "5",
            "type": "t_enum(JobStatus)2441"
          }
        ],
        "numberOfBytes": "192"
      },
      "t_uint256": {
        "encoding": "inplace",
        "label": "uint256",
        "numberOfBytes": "32"
      }
    }
  }
}