{
  "address": "0x7716a003d72aBd255922A599EF18d74270E37858",
  "abi": [
    {
      "inputs": [
        {
          "internalType": "address",
          "name": "_mneeToken",
          "type": "address"
        },
        {
          "internalType": "uint256",
          "name": "_jobTimeout",
          "type": "uint256"
        },
        {
          "internalType": "address",
          "name": "_platformTreasury",
          "type": "address"
        },
        {
          "internalType": "uint256",
          "name": "_platformFeeBps",
          "type": "uint256"
        }
      ],
      "stateMutability": "nonpayable",
      "type": "constructor"
    },
    {
      "inputs": [],
      "name": "FeeTooHigh",
      "type": "error"
    },
    {
      "inputs": [],
      "name": "InvalidTreasury",
      "type": "error"
    },
    {
      "inputs": [],
      "name": "JobNotExpired",
      "type": "error"
    },
    {
      "inputs": [],
      "name": "JobNotFound",
      "type": "error"
    },
    {
      "inputs": [],
      "name": "JobNotPending",
      "type": "error"
    },
    {
      "inputs": [],
      "name": "OnlyRouter",
      "type": "error"
    },
    {
      "inputs": [
        {
          "internalType": "address",
          "name": "owner",
          "type": "address"
        }
      ],
      "name": "OwnableInvalidOwner",
      "type": "error"
    },
    {
      "inputs": [
        {
          "internalType": "address",
          "name": "account",
          "type": "address"
        }
      ],
      "name": "OwnableUnauthorizedAccount",
      "type": "error"
    },
    {
      "inputs": [],
      "name": "ReentrancyGuardReentrantCall",
      "type": "error"
    },
    {
      "inputs": [
        {
          "internalType": "address",
          "name": "token",
          "type": "address"
        }
      ],
      "name": "SafeERC20FailedOperation",
      "type": "error"
    },
    {
      "anonymous": false,
      "inputs": [
        {
          "indexed": true,
          "internalType": "bytes32",
          "name": "jobId",
          "type": "bytes32"
        },
        {
          "indexed": false,
          "internalType": "uint256",
          "name": "amount",
          "type": "uint256"
        }
      ],
      "name": "JobCompleted",
      "type": "event"
    },
    {
      "anonymous": false,
      "inputs": [
        {
          "indexed": true,
          "internalType": "bytes32",
          "name": "jobId",
          "type": "bytes32"
        },
        {
          "indexed": true,
          "internalType": "uint256",
          "name": "callerAgentId",
          "type": "uint256"
        },
        {
          "indexed": true,
          "internalType": "uint256",
          "name": "providerAgentId",
          "type": "uint256"
        },
        {
          "indexed": false,
          "internalType": "address",
          "name": "callerWallet",
          "type": "address"
        },
        {
          "indexed": false,
          "internalType": "uint256",
          "name": "amount",
          "type": "uint256"
        }
      ],
      "name": "JobCreated",
      "type": "event"
    },
    {
      "anonymous": false,
      "inputs": [
        {
          "indexed": true,
          "internalType": "bytes32",
          "name": "jobId",
          "type": "bytes32"
        },
        {
          "indexed": false,
          "internalType": "uint256",
          "name": "amount",
          "type": "uint256"
        }
      ],
      "name": "JobDisputed",
      "type": "event"
    },
    {
      "anonymous": false,
      "inputs": [
        {
          "indexed": true,
          "internalType": "bytes32",
          "name": "jobId",
          "type": "bytes32"
        },
        {
          "indexed": false,
          "internalType": "uint256",
          "name": "amount",
          "type": "uint256"
        }
      ],
      "name": "JobExpired",
      "type": "event"
    },
    {
      "anonymous": false,
      "inputs": [
        {
          "indexed": true,
          "internalType": "address",
          "name": "previousOwner",
          "type": "address"
        },
        {
          "indexed": true,
          "internalType": "address",
          "name": "newOwner",
          "type": "address"
        }
      ],
      "name": "OwnershipTransferred",
      "type": "event"
    },
    {
      "anonymous": false,
      "inputs": [
        {
          "indexed": true,
          "internalType": "bytes32",
          "name": "jobId",
          "type": "bytes32"
        },
        {
          "indexed": false,
          "internalType": "uint256",
          "name": "fee",
          "type": "uint256"
        }
      ],
      "name": "PlatformFeeCollected",
      "type": "event"
    },
    {
      "inputs": [
        {
          "internalType": "bytes32",
          "name": "jobId",
          "type": "bytes32"
        },
        {
          "internalType": "address",
          "name": "providerOwner",
          "type": "address"
        }
      ],
      "name": "completeJob",
      "outputs": [],
      "stateMutability": "nonpayable",
      "type": "function"
    },
    {
      "inputs": [
        {
          "internalType": "uint256",
          "name": "callerAgentId",
          "type": "uint256"
        },
        {
          "internalType": "uint256",
          "name": "providerAgentId",
          "type": "uint256"
        },
        {
          "internalType": "address",
          "name": "callerWallet",
          "type": "address"
        },
        {
          "internalType": "uint256",
          "name": "amount",
          "type": "uint256"
        }
      ],
      "name": "createJob",
      "outputs": [
        {
          "internalType": "bytes32",
          "name": "jobId",
          "type": "bytes32"
        }
      ],
      "stateMutability": "nonpayable",
      "type": "function"
    },
    {
      "inputs": [
        {
          "internalType": "bytes32",
          "name": "jobId",
          "type": "bytes32"
        }
      ],
      "name": "disputeJob",
      "outputs": [],
      "stateMutability": "nonpayable",
      "type": "function"
    },
    {
      "inputs": [
        {
          "internalType": "bytes32",
          "name": "jobId",
          "type": "bytes32"
        },
        {
          "internalType": "address",
          "name": "providerOwner",
          "type": "address"
        }
      ],
      "name": "expireJob",
      "outputs": [],
      "stateMutability": "nonpayable",
      "type": "function"
    },
    {
      "inputs": [],
      "name": "getEscrowBalance",
      "outputs": [
        {
          "internalType": "uint256",
          "name": "",
          "type": "uint256"
        }
      ],
      "stateMutability": "view",
      "type": "function"
    },
    {
      "inputs": [],
      "name": "getEscrowStats",
      "outputs": [
        {
          "internalType": "uint256",
          "name": "_totalCreated",
          "type": "uint256"
        },
        {
          "internalType": "uint256",
          "name": "_totalCompleted",
          "type": "uint256"
        },
        {
          "internalType": "uint256",
          "name": "_totalDisputed",
          "type": "uint256"
        },
        {
          "internalType": "uint256",
          "name": "_totalExpired",
          "type": "uint256"
        },
        {
          "internalType": "uint256",
          "name": "_pending",
          "type": "uint256"
        },
        {
          "internalType": "uint256",
          "name": "_escrowBalance",
          "type": "uint256"
        }
      ],
      "stateMutability": "view",
      "type": "function"
    },
    {
      "inputs": [
        {
          "internalType": "bytes32",
          "name": "jobId",
          "type": "bytes32"
        }
      ],
      "name": "getJob",
      "outputs": [
        {
          "components": [
            {
              "internalType": "uint256",
              "name": "callerAgentId",
              "type": "uint256"
            },
            {
              "internalType": "uint256",
              "name": "providerAgentId",
              "type": "uint256"
            },
            {
              "internalType": "address",
              "name": "callerWallet",
              "type": "address"
            },
            {
              "internalType": "uint256",
              "name": "amount",
              "type": "uint256"
            },
            {
              "internalType": "uint256",
              "name": "createdAt",
              "type": "uint256"
            },
            {
              "internalType": "enum IAgentEscrow.JobStatus",
              "name": "status",
              "type": "uint8"
            }
          ],
          "internalType": "struct IAgentEscrow.Job",
          "name": "",
          "type": "tuple"
        }
      ],
      "stateMutability": "view",
      "type": "function"
    },
    {
      "inputs": [],
      "name": "getPlatformStats",
      "outputs": [
        {
          "internalType": "address",
          "name": "_treasury",
          "type": "address"
        },
        {
          "internalType": "uint256",
          "name": "_feeBps",
          "type": "uint256"
        },
        {
          "internalType": "uint256",
          "name": "_totalCollected",
          "type": "uint256"
        }
      ],
      "stateMutability": "view",
      "type": "function"
    },
    {
      "inputs": [
        {
          "internalType": "bytes32",
          "name": "jobId",
          "type": "bytes32"
        }
      ],
      "name": "isJobExpired",
      "outputs": [
        {
          "internalType": "bool",
          "name": "",
          "type": "bool"
        }
      ],
      "stateMutability": "view",
      "type": "function"
    },
    {
      "inputs": [],
      "name": "jobTimeout",
      "outputs": [
        {
          "internalType": "uint256",
          "name": "",
          "type": "uint256"
        }
      ],
      "stateMutability": "view",
      "type": "function"
    },
    {
      "inputs": [],
      "name": "mneeToken",
      "outputs": [
        {
          "internalType": "contract IERC20",
          "name": "",
          "type": "address"
        }
      ],
      "stateMutability": "view",
      "type": "function"
    },
    {
      "inputs": [],
      "name": "owner",
      "outputs": [
        {
          "internalType": "address",
          "name": "",
          "type": "address"
        }
      ],
      "stateMutability": "view",
      "type": "function"
    },
    {
      "inputs": [],
      "name": "pendingJobsCount",
      "outputs": [
        {
          "internalType": "uint256",
          "name": "",
          "type": "uint256"
        }
      ],
      "stateMutability": "view",
      "type": "function"
    },
    {
      "inputs": [],
      "name": "platformFeeBps",
      "outputs": [
        {
          "internalType": "uint256",
          "name": "",
          "type": "uint256"
        }
      ],
      "stateMutability": "view",
      "type": "function"
    },
    {
      "inputs": [],
      "name": "platformTreasury",
      "outputs": [
        {
          "internalType": "address",
          "name": "",
          "type": "address"
        }
      ],
      "stateMutability": "view",
      "type": "function"
    },
    {
      "inputs": [],
      "name": "renounceOwnership",
      "outputs": [],
      "stateMutability": "nonpayable",
      "type": "function"
    },
    {
      "inputs": [],
      "name": "router",
      "outputs": [
        {
          "internalType": "address",
          "name": "",
          "type": "address"
        }
      ],
      "stateMutability": "view",
      "type": "function"
    },
    {
      "inputs": [
        {
          "internalType": "uint256",
          "name": "_newTimeout",
          "type": "uint256"
        }
      ],
      "name": "setJobTimeout",
      "outputs": [],
      "stateMutability": "nonpayable",
      "type": "function"
    },
    {
      "inputs": [
        {
          "internalType": "uint256",
          "name": "_feeBps",
          "type": "uint256"
        }
      ],
      "name": "setPlatformFeeBps",
      "outputs": [],
      "stateMutability": "nonpayable",
      "type": "function"
    },
    {
      "inputs": [
        {
          "internalType": "address",
          "name": "_treasury",
          "type": "address"
        }
      ],
      "name": "setPlatformTreasury",
      "outputs": [],
      "stateMutability": "nonpayable",
      "type": "function"
    },
    {
      "inputs": [
        {
          "internalType": "address",
          "name": "_router",
          "type": "address"
        }
      ],
      "name": "setRouter",
      "outputs": [],
      "stateMutability": "nonpayable",
      "type": "function"
    },
    {
      "inputs": [],
      "name": "totalJobsCompleted",
      "outputs": [
        {
          "internalType": "uint256",
          "name": "",
          "type": "uint256"
        }
      ],
      "stateMutability": "view",
      "type": "function"
    },
    {
      "inputs": [],
      "name": "totalJobsCreated",
      "outputs": [
        {
          "internalType": "uint256",
          "name": "",
          "type": "uint256"
        }
      ],
      "stateMutability": "view",
      "type": "function"
    },
    {
      "inputs": [],
      "name": "totalJobsDisputed",
      "outputs": [
        {
          "internalType": "uint256",
          "name": "",
          "type": "uint256"
        }
      ],
      "stateMutability": "view",
      "type": "function"
    },
    {
      "inputs": [],
      "name": "totalJobsExpired",
      "outputs": [
        {
          "internalType": "uint256",
          "name": "",
          "type": "uint256"
        }
      ],
      "stateMutability": "view",
      "type": "function"
    },
    {
      "inputs": [],
      "name": "totalPlatformFees",
      "outputs": [
        {
          "internalType": "uint256",
          "name": "",
          "type": "uint256"
        }
      ],
      "stateMutability": "view",
      "type": "function"
    },
    {
      "inputs": [
        {
          "internalType": "address",
          "name": "newOwner",
          "type": "address"
        }
      ],
      "name": "transferOwnership",
      "outputs": [],
      "stateMutability": "nonpayable",
      "type": "function"
    }
  ],
  "transactionHash": "0x6042ba7a87a0dbf13d592800fb874cb988c67e82924c032820b12313a66db929",
  "args": [
    "0x4E07a6Da938FDEF246dD85448f0393A3F522820f",
    3600,
    "0x17A076d6cCaf37Bc9386EAB653A5EfAd8B07430C",
    1000
  ],
  "numDeployments": 1,
  "solcInputHash": "66f63bc6a3ff880b4c1c92155d308fb1",
  "bytecode": "0x60a06040523480156200001157600080fd5b50604051620015293803806200152983398101604081905262000034916200010b565b33806200005b57604051631e4fbdf760e01b81526000600482015260240160405180910390fd5b62000066816200009e565b50600180556001600160a01b03938416608052600292909255600480546001600160a01b031916919093161790915560055562000154565b600080546001600160a01b038381166001600160a01b0319831681178455604051919092169283917f8be0079c531659141344cd1fd0a4f28419497f9722a3daafe3b4186f6b6457e09190a35050565b80516001600160a01b03811681146200010657600080fd5b919050565b600080600080608085870312156200012257600080fd5b6200012d85620000ee565b9350602085015192506200014460408601620000ee565b6060959095015193969295505050565b608051611381620001a86000396000818161020f0152818161059b01528181610629015281816107e00152818161086e0152818161091801528181610a5b01528181610bc60152610d6a01526113816000f3fe608060405234801561001057600080fd5b50600436106101a95760003560e01c8063c0d78655116100f9578063e4946feb11610097578063f729cf0d11610071578063f729cf0d14610393578063f887ea40146103b3578063fada7c7a146103c6578063fd2d5006146103cf57600080fd5b8063e4946feb14610354578063eac6b7b61461035d578063f2fde38b1461038057600080fd5b8063c580c942116100d3578063c580c9421461031c578063d28895311461032f578063d3631fa514610338578063e138818c1461034157600080fd5b8063c0d78655146102ee578063c129062d14610301578063c56e610e1461031457600080fd5b80637cd86d6011610166578063935034191161014057806393503419146102805780639cb10f0114610293578063acff2b09146102a6578063ba3f5443146102db57600080fd5b80637cd86d60146102535780638da5cb5b146102665780638ee0decf1461027757600080fd5b8063136d8883146101ae57806322dcd13e146101e157806322ef57bd146101f85780633098faaf146102015780635b71474a1461020a578063715018a614610249575b600080fd5b600454600554600654604080516001600160a01b0390941684526020840192909252908201526060015b60405180910390f35b6101ea60055481565b6040519081526020016101d8565b6101ea60075481565b6101ea600b5481565b6102317f000000000000000000000000000000000000000000000000000000000000000081565b6040516001600160a01b0390911681526020016101d8565b6102516103e2565b005b61025161026136600461116a565b6103f6565b6000546001600160a01b0316610231565b6101ea60085481565b61025161028e366004611185565b610447565b6102516102a1366004611185565b6106c4565b6102ae6108df565b604080519687526020870195909552938501929092526060840152608083015260a082015260c0016101d8565b6102516102e93660046111b1565b610996565b6102516102fc36600461116a565b610b03565b6101ea61030f3660046111ca565b610b2d565b6101ea610d52565b61025161032a3660046111b1565b610de2565b6101ea60025481565b6101ea60065481565b600454610231906001600160a01b031681565b6101ea600a5481565b61037061036b3660046111b1565b610e12565b60405190151581526020016101d8565b61025161038e36600461116a565b610e5f565b6103a66103a13660046111b1565b610e9f565b6040516101d8919061121d565b600354610231906001600160a01b031681565b6101ea60095481565b6102516103dd3660046111b1565b610f37565b6103ea610f44565b6103f46000610f71565b565b6103fe610f44565b6001600160a01b038116610425576040516302979eb960e31b815260040160405180910390fd5b600480546001600160a01b0319166001600160a01b0392909216919091179055565b6003546001600160a01b0316331461047257604051639e41bdd760e01b815260040160405180910390fd5b61047a610fc1565b6000828152600c6020526040902060028101546001600160a01b03166104b35760405163c0a8563160e01b815260040160405180910390fd5b6000600582015460ff1660038111156104ce576104ce611207565b146104ec576040516304c0a3d560e01b815260040160405180910390fd5b60025481600401546104fe919061129d565b42101561051e57604051630d9fd01160e41b815260040160405180910390fd5b6005810180546003919060ff191660018302179055506000612710600554836003015461054b91906112b6565b61055591906112cd565b9050600081836003015461056991906112ef565b905060008211801561058557506004546001600160a01b031615155b15610615576004546105c4906001600160a01b037f00000000000000000000000000000000000000000000000000000000000000008116911684610feb565b81600660008282546105d6919061129d565b909155505060405182815285907ff45996501352220c0143bb7d4599e869f72ce0391bcdcf0c0ca59bd0810dd45a9060200160405180910390a261061c565b5060038201545b6106506001600160a01b037f0000000000000000000000000000000000000000000000000000000000000000168583610feb565b847ff452a84463ea8e1a7ac0a64252cf600ce6a20fbddac033c8fddc0a60672cff538260405161068291815260200190565b60405180910390a2600a805490600061069a83611302565b9091555050600b80549060006106af8361131b565b91905055505050506106c060018055565b5050565b6003546001600160a01b031633146106ef57604051639e41bdd760e01b815260040160405180910390fd5b6106f7610fc1565b6000828152600c6020526040902060028101546001600160a01b03166107305760405163c0a8563160e01b815260040160405180910390fd5b6000600582015460ff16600381111561074b5761074b611207565b14610769576040516304c0a3d560e01b815260040160405180910390fd5b6005818101805460ff191660011790555460038201546000916127109161079091906112b6565b61079a91906112cd565b905060008183600301546107ae91906112ef565b90506000821180156107ca57506004546001600160a01b031615155b1561085a57600454610809906001600160a01b037f00000000000000000000000000000000000000000000000000000000000000008116911684610feb565b816006600082825461081b919061129d565b909155505060405182815285907ff45996501352220c0143bb7d4599e869f72ce0391bcdcf0c0ca59bd0810dd45a9060200160405180910390a2610861565b5060038201545b6108956001600160a01b037f0000000000000000000000000000000000000000000000000000000000000000168583610feb565b847f9b5ed714c31dfcb1a9397710b6fc1842f37d94ab5dc0ccb528d9a2c97ea76f2a826040516108c791815260200190565b60405180910390a26008805490600061069a83611302565b600754600854600954600a54600b546040516370a0823160e01b8152306004820152600095869586958695869586956001600160a01b037f000000000000000000000000000000000000000000000000000000000000000016906370a0823190602401602060405180830381865afa15801561095f573d6000803e3d6000fd5b505050506040513d601f19601f820116820180604052508101906109839190611332565b949b939a50919850965094509092509050565b6003546001600160a01b031633146109c157604051639e41bdd760e01b815260040160405180910390fd5b6109c9610fc1565b6000818152600c6020526040902060028101546001600160a01b0316610a025760405163c0a8563160e01b815260040160405180910390fd5b6000600582015460ff166003811115610a1d57610a1d611207565b14610a3b576040516304c0a3d560e01b815260040160405180910390fd5b60058101805460ff191660029081179091558101546003820154610a8e917f00000000000000000000000000000000000000000000000000000000000000006001600160a01b0390811692911690610feb565b817f6e04aa702f9af7a9a398f10d27918152df25ac0cdc6d74321b9f7496374387a78260030154604051610ac491815260200190565b60405180910390a260098054906000610adc83611302565b9091555050600b8054906000610af18361131b565b919050555050610b0060018055565b50565b610b0b610f44565b600380546001600160a01b0319166001600160a01b0392909216919091179055565b6003546000906001600160a01b03163314610b5b57604051639e41bdd760e01b815260040160405180910390fd5b610b63610fc1565b604080514260208201526bffffffffffffffffffffffff19606086901b1691810191909152605481018590526074810186905244609482015260b40160408051601f1981840301815291905280516020909101209050610bee6001600160a01b037f00000000000000000000000000000000000000000000000000000000000000001684308561104f565b6040518060c00160405280868152602001858152602001846001600160a01b0316815260200183815260200142815260200160006003811115610c3357610c33611207565b815250600c6000838152602001908152602001600020600082015181600001556020820151816001015560408201518160020160006101000a8154816001600160a01b0302191690836001600160a01b03160217905550606082015181600301556080820151816004015560a08201518160050160006101000a81548160ff02191690836003811115610cc857610cc8611207565b021790555050604080516001600160a01b038616815260208101859052869250879184917f4bb7dd7251a0c55cdd1b69e96abaa7a2cd443dfeb6d6a908dd225848e6c5aa52910160405180910390a460078054906000610d2783611302565b9091555050600b8054906000610d3c83611302565b9190505550610d4a60018055565b949350505050565b6040516370a0823160e01b81523060048201526000907f00000000000000000000000000000000000000000000000000000000000000006001600160a01b0316906370a0823190602401602060405180830381865afa158015610db9573d6000803e3d6000fd5b505050506040513d601f19601f82011682018060405250810190610ddd9190611332565b905090565b610dea610f44565b6107d0811115610e0d5760405163cd4e616760e01b815260040160405180910390fd5b600555565b6000818152600c6020526040812081600582015460ff166003811115610e3a57610e3a611207565b148015610e5857506002548160040154610e54919061129d565b4210155b9392505050565b610e67610f44565b6001600160a01b038116610e9657604051631e4fbdf760e01b8152600060048201526024015b60405180910390fd5b610b0081610f71565b610ea76110ff565b6000828152600c6020908152604091829020825160c0810184528154815260018201549281019290925260028101546001600160a01b031692820192909252600380830154606083015260048301546080830152600583015491929160a084019160ff90911690811115610f1d57610f1d611207565b6003811115610f2e57610f2e611207565b90525092915050565b610f3f610f44565b600255565b6000546001600160a01b031633146103f45760405163118cdaa760e01b8152336004820152602401610e8d565b600080546001600160a01b038381166001600160a01b0319831681178455604051919092169283917f8be0079c531659141344cd1fd0a4f28419497f9722a3daafe3b4186f6b6457e09190a35050565b600260015403610fe457604051633ee5aeb560e01b815260040160405180910390fd5b6002600155565b6040516001600160a01b0383811660248301526044820183905261104a91859182169063a9059cbb906064015b604051602081830303815290604052915060e01b6020820180516001600160e01b03838183161783525050505061108e565b505050565b6040516001600160a01b0384811660248301528381166044830152606482018390526110889186918216906323b872dd90608401611018565b50505050565b600080602060008451602086016000885af1806110b1576040513d6000823e3d81fd5b50506000513d915081156110c95780600114156110d6565b6001600160a01b0384163b155b1561108857604051635274afe760e01b81526001600160a01b0385166004820152602401610e8d565b6040518060c00160405280600081526020016000815260200160006001600160a01b0316815260200160008152602001600081526020016000600381111561114957611149611207565b905290565b80356001600160a01b038116811461116557600080fd5b919050565b60006020828403121561117c57600080fd5b610e588261114e565b6000806040838503121561119857600080fd5b823591506111a86020840161114e565b90509250929050565b6000602082840312156111c357600080fd5b5035919050565b600080600080608085870312156111e057600080fd5b84359350602085013592506111f76040860161114e565b9396929550929360600135925050565b634e487b7160e01b600052602160045260246000fd5b81518152602080830151908201526040808301516001600160a01b031690820152606080830151908201526080808301519082015260a082015160c08201906004811061127a57634e487b7160e01b600052602160045260246000fd5b8060a08401525092915050565b634e487b7160e01b600052601160045260246000fd5b808201808211156112b0576112b0611287565b92915050565b80820281158282048414176112b0576112b0611287565b6000826112ea57634e487b7160e01b600052601260045260246000fd5b500490565b818103818111156112b0576112b0611287565b60006001820161131457611314611287565b5060010190565b60008161132a5761132a611287565b506000190190565b60006020828403121561134457600080fd5b505191905056fea2646970667358221220b2d2435e1c507b495862dcc137a31dc61670a2435a82c3331e9ef257803f357564736f6c63430008140033",
  "devdoc": {
    "details": "Locks funds, releases on confirmation, refunds on dispute",
    "errors": {
      "OwnableInvalidOwner(address)": [
        {
          "details": "The owner is not a valid owner account. (eg. `address(0)`)"
        }
      ],
      "OwnableUnauthorizedAccount(address)": [
        {
          "details": "The caller account is not authorized to perform an operation."
        }
      ],
      "ReentrancyGuardReentrantCall()": [
        {
          "details": "Unauthorized reentrant call."
        }
      ],
      "SafeERC20FailedOperation(address)": [
        {
          "details": "An operation with an ERC-20 token failed."
        }
      ]
    },
    "kind": "dev",
    "methods": {
      "completeJob(bytes32,address)": {
        "params": {
          "jobId": "ID of the job",
          "providerOwner": "Address to receive the funds"
        }
      },
      "constructor": {
        "params": {
          "_jobTimeout": "Timeout duration in seconds",
          "_mneeToken": "Address of the MNEE ERC20 token"
        }
      },
      "createJob(uint256,uint256,address,uint256)": {
        "params": {
          "amount": "Amount of MNEE to lock",
          "callerAgentId": "ID of the calling agent",
          "callerWallet": "Address that is paying",
          "providerAgentId": "ID of the provider agent"
        },
        "returns": {
          "jobId": "Unique job identifier"
        }
      },
      "disputeJob(bytes32)": {
        "params": {
          "jobId": "ID of the job"
        }
      },
      "expireJob(bytes32,address)": {
        "params": {
          "jobId": "ID of the job",
          "providerOwner": "Address to receive the funds"
        }
      },
      "getEscrowBalance()": {
        "returns": {
          "_0": "balance Amount of MNEE held in escrow"
        }
      },
      "getEscrowStats()": {
        "returns": {
          "_escrowBalance": "Current MNEE in escrow",
          "_pending": "Current pending jobs",
          "_totalCompleted": "Total jobs completed",
          "_totalCreated": "Total jobs ever created",
          "_totalDisputed": "Total jobs disputed",
          "_totalExpired": "Total jobs expired"
        }
      },
      "getPlatformStats()": {
        "returns": {
          "_feeBps": "Current fee in basis points",
          "_totalCollected": "Total fees collected ever",
          "_treasury": "Platform treasury address"
        }
      },
      "owner()": {
        "details": "Returns the address of the current owner."
      },
      "renounceOwnership()": {
        "details": "Leaves the contract without owner. It will not be possible to call `onlyOwner` functions. Can only be called by the current owner. NOTE: Renouncing ownership will leave the contract without an owner, thereby disabling any functionality that is only available to the owner."
      },
      "setJobTimeout(uint256)": {
        "params": {
          "_newTimeout": "New timeout in seconds"
        }
      },
      "setPlatformFeeBps(uint256)": {
        "params": {
          "_feeBps": "New fee in basis points (max 2000 = 20%)"
        }
      },
      "setPlatformTreasury(address)": {
        "params": {
          "_treasury": "New treasury address"
        }
      },
      "setRouter(address)": {
        "params": {
          "_router": "Address of the AgentRouter contract"
        }
      },
      "transferOwnership(address)": {
        "details": "Transfers ownership of the contract to a new account (`newOwner`). Can only be called by the current owner."
      }
    },
    "title": "AgentEscrow",
    "version": 1
  },
  "userdoc": {
    "kind": "user",
    "methods": {
      "completeJob(bytes32,address)": {
        "notice": "Complete a job and release funds to provider"
      },
      "constructor": {
        "notice": "Initialize escrow with MNEE token and timeout"
      },
      "createJob(uint256,uint256,address,uint256)": {
        "notice": "Create a new job and lock MNEE"
      },
      "disputeJob(bytes32)": {
        "notice": "Dispute a job and refund caller"
      },
      "expireJob(bytes32,address)": {
        "notice": "Expire a job and release to provider (after timeout)"
      },
      "getEscrowBalance()": {
        "notice": "Get current MNEE balance locked in escrow"
      },
      "getEscrowStats()": {
        "notice": "Get escrow statistics"
      },
      "getPlatformStats()": {
        "notice": "Get platform fee statistics"
      },
      "setJobTimeout(uint256)": {
        "notice": "Update job timeout"
      },
      "setPlatformFeeBps(uint256)": {
        "notice": "Update platform fee in basis points (only owner)"
      },
      "setPlatformTreasury(address)": {
        "notice": "Update platform treasury address (only owner)"
      },
      "setRouter(address)": {
        "notice": "Set the router address"
      }
    },
    "notice": "Handles MNEE payment escrow for agent services",
    "version": 1
  },
  "storageLayout": {
    "storage": [
      {
        "astId": 8,
        "contract": "contracts/AgentEscrow.sol:AgentEscrow",
        "label": "_owner",
        "offset": 0,
        "slot": "0",
        "type": "t_address"
      },
      {
        "astId": 820,
        "contract": "contracts/AgentEscrow.sol:AgentEscrow",
        "label": "_status",
        "offset": 0,
        "slot": "1",
        "type": "t_uint256"
      },
      {
        "astId": 913,
        "contract": "contracts/AgentEscrow.sol:AgentEscrow",
        "label": "jobTimeout",
        "offset": 0,
        "slot": "2",
        "type": "t_uint256"
      },
      {
        "astId": 915,
        "contract": "contracts/AgentEscrow.sol:AgentEscrow",
        "label": "router",
        "offset": 0,
        "slot": "3",
        "type": "t_address"
      },
      {
        "astId": 917,
        "contract": "contracts/AgentEscrow.sol:AgentEscrow",
        "label": "platformTreasury",
        "offset": 0,
        "slot": "4",
        "type": "t_address"
      },
      {
        "astId": 919,
        "contract": "contracts/AgentEscrow.sol:AgentEscrow",
        "label": "platformFeeBps",
        "offset": 0,
        "slot": "5",
        "type": "t_uint256"
      },
      {
        "astId": 921,
        "contract": "contracts/AgentEscrow.sol:AgentEscrow",
        "label": "totalPlatformFees",
        "offset": 0,
        "slot": "6",
        "type": "t_uint256"
      },
      {
        "astId": 923,
        "contract": "contracts/AgentEscrow.sol:AgentEscrow",
        "label": "totalJobsCreated",
        "offset": 0,
        "slot": "7",
        "type": "t_uint256"
      },
      {
        "astId": 925,
        "contract": "contracts/AgentEscrow.sol:AgentEscrow",
        "label": "totalJobsCompleted",
        "offset": 0,
        "slot": "8",
        "type": "t_uint256"
      },
      {
        "astId": 927,
        "contract": "contracts/AgentEscrow.sol:AgentEscrow",
        "label": "totalJobsDisputed",
        "offset": 0,
        "slot": "9",
        "type": "t_uint256"
      },
      {
        "astId": 929,
        "contract": "contracts/AgentEscrow.sol:AgentEscrow",
        "label": "totalJobsExpired",
        "offset": 0,
        "slot": "10",
        "type": "t_uint256"
      },
      {
        "astId": 931,
        "contract": "contracts/AgentEscrow.sol:AgentEscrow",
        "label": "pendingJobsCount",
        "offset": 0,
        "slot": "11",
        "type": "t_uint256"
      },
      {
        "astId": 936,
        "contract": "contracts/AgentEscrow.sol:AgentEscrow",
        "label": "_jobs",
        "offset": 0,
        "slot": "12",
        "type": "t_mapping(t_bytes32,t_struct(Job)1574_storage)"
      }
    ],
    "types": {
      "t_address": {
        "encoding": "inplace",
        "label": "address",
        "numberOfBytes": "20"
      },
      "t_bytes32": {
        "encoding": "inplace",
        "label": "bytes32",
        "numberOfBytes": "32"
      },
      "t_enum(JobStatus)1560": {
        "encoding": "inplace",
        "label": "enum IAgentEscrow.JobStatus",
        "numberOfBytes": "1"
      },
      "t_mapping(t_bytes32,t_struct(Job)1574_storage)": {
        "encoding": "mapping",
        "key": "t_bytes32",
        "label": "mapping(bytes32 => struct IAgentEscrow.Job)",
        "numberOfBytes": "32",
        "value": "t_struct(Job)1574_storage"
      },
      "t_struct(Job)1574_storage": {
        "encoding": "inplace",
        "label": "struct IAgentEscrow.Job",
        "members": [
          {
            "astId": 1562,
            "contract": "contracts/AgentEscrow.sol:AgentEscrow",
            "label": "callerAgentId",
            "offset": 0,
            "slot": "0",
            "type": "t_uint256"
          },
          {
            "astId": 1564,
            "contract": "contracts/AgentEscrow.sol:AgentEscrow",
            "label": "providerAgentId",
            "offset": 0,
            "slot": "1",
            "type": "t_uint256"
          },
          {
            "astId": 1566,
            "contract": "contracts/AgentEscrow.sol:AgentEscrow",
            "label": "callerWallet",
            "offset": 0,
            "slot": "2",
            "type": "t_address"
          },
          {
            "astId": 1568,
            "contract": "contracts/AgentEscrow.sol:AgentEscrow",
            "label": "amount",
            "offset": 0,
            "slot": "3",
            "type": "t_uint256"
          },
          {
            "astId": 1570,
            "contract": "contracts/AgentEscrow.sol:AgentEscrow",
            "label": "createdAt",
            "offset": 0,
            "slot": "4",
            "type": "t_uint256"
          },
          {
            "astId": 1573,
            "contract": "contracts/AgentEscrow.sol:AgentEscrow",
            "label": "status",
            "offset": 0,
            "slot": "5",
            "type": "t_enum(JobStatus)1560"
          }
        ],
        "numberOfBytes": "192"
      },
      "t_uint256": {
        "encoding": "inplace",
        "label": "uint256",
        "numberOfBytes": "32"
      }
    }
  }
}