{
  "address": "0x995fe8a8A5cFf1E47a082B23e3f2BD38Fe42D71C",
  "abi": [
    {
      "inputs": [
        {
          "internalType": "address",
          "name": "_registry",
          "type": "address"
        },
        {
          "internalType": "address",
          "name": "_escrow",
          "type": "address"
        },
        {
          "internalType": "address",
          "name": "_mneeToken",
          "type": "address"
        }
      ],
      "stateMutability": "nonpayable",
      "type": "constructor"
    },
    {
      "inputs": [],
      "name": "AgentNotActive",
      "type": "error"
    },
    {
      "inputs": [],
      "name": "AgentNotFound",
      "type": "error"
    },
    {
      "inputs": [],
      "name": "CannotCallOwnAgent",
      "type": "error"
    },
    {
      "inputs": [],
      "name": "InsufficientAllowance",
      "type": "error"
    },
    {
      "inputs": [],
      "name": "JobNotFound",
      "type": "error"
    },
    {
      "inputs": [],
      "name": "NotJobCaller",
      "type": "error"
    },
    {
      "inputs": [
        {
          "internalType": "address",
          "name": "owner",
          "type": "address"
        }
      ],
      "name": "OwnableInvalidOwner",
      "type": "error"
    },
    {
      "inputs": [
        {
          "internalType": "address",
          "name": "account",
          "type": "address"
        }
      ],
      "name": "OwnableUnauthorizedAccount",
      "type": "error"
    },
    {
      "anonymous": false,
      "inputs": [
        {
          "indexed": true,
          "internalType": "address",
          "name": "previousOwner",
          "type": "address"
        },
        {
          "indexed": true,
          "internalType": "address",
          "name": "newOwner",
          "type": "address"
        }
      ],
      "name": "OwnershipTransferred",
      "type": "event"
    },
    {
      "anonymous": false,
      "inputs": [
        {
          "indexed": true,
          "internalType": "bytes32",
          "name": "jobId",
          "type": "bytes32"
        },
        {
          "indexed": true,
          "internalType": "uint256",
          "name": "callerAgentId",
          "type": "uint256"
        },
        {
          "indexed": true,
          "internalType": "uint256",
          "name": "providerAgentId",
          "type": "uint256"
        },
        {
          "indexed": false,
          "internalType": "address",
          "name": "callerWallet",
          "type": "address"
        },
        {
          "indexed": false,
          "internalType": "uint256",
          "name": "amount",
          "type": "uint256"
        }
      ],
      "name": "ServiceRequested",
      "type": "event"
    },
    {
      "inputs": [],
      "name": "agentCount",
      "outputs": [
        {
          "internalType": "uint256",
          "name": "",
          "type": "uint256"
        }
      ],
      "stateMutability": "view",
      "type": "function"
    },
    {
      "inputs": [
        {
          "internalType": "bytes32",
          "name": "jobId",
          "type": "bytes32"
        }
      ],
      "name": "confirmJob",
      "outputs": [],
      "stateMutability": "nonpayable",
      "type": "function"
    },
    {
      "inputs": [
        {
          "internalType": "bytes32",
          "name": "jobId",
          "type": "bytes32"
        }
      ],
      "name": "disputeJob",
      "outputs": [],
      "stateMutability": "nonpayable",
      "type": "function"
    },
    {
      "inputs": [],
      "name": "escrow",
      "outputs": [
        {
          "internalType": "contract IAgentEscrow",
          "name": "",
          "type": "address"
        }
      ],
      "stateMutability": "view",
      "type": "function"
    },
    {
      "inputs": [
        {
          "internalType": "bytes32",
          "name": "jobId",
          "type": "bytes32"
        }
      ],
      "name": "expireJob",
      "outputs": [],
      "stateMutability": "nonpayable",
      "type": "function"
    },
    {
      "inputs": [
        {
          "internalType": "uint256",
          "name": "agentId",
          "type": "uint256"
        }
      ],
      "name": "getAgent",
      "outputs": [
        {
          "components": [
            {
              "internalType": "address",
              "name": "owner",
              "type": "address"
            },
            {
              "internalType": "address",
              "name": "wallet",
              "type": "address"
            },
            {
              "internalType": "uint256",
              "name": "pricePerCall",
              "type": "uint256"
            },
            {
              "internalType": "string",
              "name": "metadataURI",
              "type": "string"
            },
            {
              "internalType": "bool",
              "name": "active",
              "type": "bool"
            },
            {
              "internalType": "uint256",
              "name": "totalEarnings",
              "type": "uint256"
            },
            {
              "internalType": "uint256",
              "name": "totalJobs",
              "type": "uint256"
            }
          ],
          "internalType": "struct IAgentRegistry.Agent",
          "name": "",
          "type": "tuple"
        }
      ],
      "stateMutability": "view",
      "type": "function"
    },
    {
      "inputs": [
        {
          "internalType": "address",
          "name": "owner",
          "type": "address"
        }
      ],
      "name": "getAgentsByOwner",
      "outputs": [
        {
          "internalType": "uint256[]",
          "name": "",
          "type": "uint256[]"
        }
      ],
      "stateMutability": "view",
      "type": "function"
    },
    {
      "inputs": [],
      "name": "getEscrow",
      "outputs": [
        {
          "internalType": "address",
          "name": "",
          "type": "address"
        }
      ],
      "stateMutability": "view",
      "type": "function"
    },
    {
      "inputs": [],
      "name": "getEscrowStats",
      "outputs": [
        {
          "internalType": "uint256",
          "name": "totalCreated",
          "type": "uint256"
        },
        {
          "internalType": "uint256",
          "name": "totalCompleted",
          "type": "uint256"
        },
        {
          "internalType": "uint256",
          "name": "totalDisputed",
          "type": "uint256"
        },
        {
          "internalType": "uint256",
          "name": "totalExpired",
          "type": "uint256"
        },
        {
          "internalType": "uint256",
          "name": "pending",
          "type": "uint256"
        },
        {
          "internalType": "uint256",
          "name": "escrowBalance",
          "type": "uint256"
        }
      ],
      "stateMutability": "view",
      "type": "function"
    },
    {
      "inputs": [
        {
          "internalType": "bytes32",
          "name": "jobId",
          "type": "bytes32"
        }
      ],
      "name": "getJob",
      "outputs": [
        {
          "components": [
            {
              "internalType": "uint256",
              "name": "callerAgentId",
              "type": "uint256"
            },
            {
              "internalType": "uint256",
              "name": "providerAgentId",
              "type": "uint256"
            },
            {
              "internalType": "address",
              "name": "callerWallet",
              "type": "address"
            },
            {
              "internalType": "uint256",
              "name": "amount",
              "type": "uint256"
            },
            {
              "internalType": "uint256",
              "name": "createdAt",
              "type": "uint256"
            },
            {
              "internalType": "enum IAgentEscrow.JobStatus",
              "name": "status",
              "type": "uint8"
            }
          ],
          "internalType": "struct IAgentEscrow.Job",
          "name": "",
          "type": "tuple"
        }
      ],
      "stateMutability": "view",
      "type": "function"
    },
    {
      "inputs": [],
      "name": "getJobTimeout",
      "outputs": [
        {
          "internalType": "uint256",
          "name": "",
          "type": "uint256"
        }
      ],
      "stateMutability": "view",
      "type": "function"
    },
    {
      "inputs": [],
      "name": "getMneeToken",
      "outputs": [
        {
          "internalType": "address",
          "name": "",
          "type": "address"
        }
      ],
      "stateMutability": "view",
      "type": "function"
    },
    {
      "inputs": [],
      "name": "getPlatformStats",
      "outputs": [
        {
          "internalType": "uint256",
          "name": "agentCount_",
          "type": "uint256"
        },
        {
          "internalType": "uint256",
          "name": "totalEarnings",
          "type": "uint256"
        },
        {
          "internalType": "uint256",
          "name": "totalJobs",
          "type": "uint256"
        }
      ],
      "stateMutability": "view",
      "type": "function"
    },
    {
      "inputs": [],
      "name": "getRegistry",
      "outputs": [
        {
          "internalType": "address",
          "name": "",
          "type": "address"
        }
      ],
      "stateMutability": "view",
      "type": "function"
    },
    {
      "inputs": [
        {
          "internalType": "bytes32",
          "name": "jobId",
          "type": "bytes32"
        }
      ],
      "name": "isJobExpired",
      "outputs": [
        {
          "internalType": "bool",
          "name": "",
          "type": "bool"
        }
      ],
      "stateMutability": "view",
      "type": "function"
    },
    {
      "inputs": [],
      "name": "mneeToken",
      "outputs": [
        {
          "internalType": "contract IERC20",
          "name": "",
          "type": "address"
        }
      ],
      "stateMutability": "view",
      "type": "function"
    },
    {
      "inputs": [],
      "name": "owner",
      "outputs": [
        {
          "internalType": "address",
          "name": "",
          "type": "address"
        }
      ],
      "stateMutability": "view",
      "type": "function"
    },
    {
      "inputs": [],
      "name": "registry",
      "outputs": [
        {
          "internalType": "contract IAgentRegistry",
          "name": "",
          "type": "address"
        }
      ],
      "stateMutability": "view",
      "type": "function"
    },
    {
      "inputs": [],
      "name": "renounceOwnership",
      "outputs": [],
      "stateMutability": "nonpayable",
      "type": "function"
    },
    {
      "inputs": [
        {
          "internalType": "uint256",
          "name": "providerAgentId",
          "type": "uint256"
        },
        {
          "internalType": "uint256",
          "name": "callerAgentId",
          "type": "uint256"
        }
      ],
      "name": "requestService",
      "outputs": [
        {
          "internalType": "bytes32",
          "name": "jobId",
          "type": "bytes32"
        }
      ],
      "stateMutability": "nonpayable",
      "type": "function"
    },
    {
      "inputs": [
        {
          "internalType": "address",
          "name": "newOwner",
          "type": "address"
        }
      ],
      "name": "transferOwnership",
      "outputs": [],
      "stateMutability": "nonpayable",
      "type": "function"
    }
  ],
  "transactionHash": "0xe1d25a3fc7a142bc4bb9f6440c10280b6798b32aad5b601bbec5ed189e670149",
  "args": [
    "0x1dD782B3039e845003858D1DBe766D45EB0531CB",
    "0x7716a003d72aBd255922A599EF18d74270E37858",
    "0x4E07a6Da938FDEF246dD85448f0393A3F522820f"
  ],
  "numDeployments": 1,
  "solcInputHash": "a15dcefcb6585abc08f5d38c88a2aa5b",
  "bytecode": "0x60806040523480156200001157600080fd5b506040516200172e3803806200172e833981016040819052620000349162000117565b33806200005b57604051631e4fbdf760e01b81526000600482015260240160405180910390fd5b6200006681620000aa565b50600180546001600160a01b039485166001600160a01b03199182161790915560028054938516938216939093179092556003805491909316911617905562000161565b600080546001600160a01b038381166001600160a01b0319831681178455604051919092169283917f8be0079c531659141344cd1fd0a4f28419497f9722a3daafe3b4186f6b6457e09190a35050565b80516001600160a01b03811681146200011257600080fd5b919050565b6000806000606084860312156200012d57600080fd5b6200013884620000fa565b92506200014860208501620000fa565b91506200015860408501620000fa565b90509250925092565b6115bd80620001716000396000f3fe608060405234801561001057600080fd5b50600436106101375760003560e01c8063a208ae38116100b8578063bad1e0941161007c578063bad1e094146102a7578063d0a1323c146102b8578063e2fdcc17146102cb578063eac6b7b6146102de578063f2fde38b14610301578063f729cf0d1461031457600080fd5b8063a208ae3814610233578063acff2b0914610244578063b0eab71414610279578063b7dc12841461028c578063ba3f54431461029457600080fd5b80635b71474a116100ff5780635b71474a146101de5780635bad4e2e146101f1578063715018a6146102075780637b1039991461020f5780638da5cb5b1461022257600080fd5b8063136d88831461013c5780631ab6f888146101645780632de5aaf7146101845780633651588e146101a45780635ab1bd53146101b9575b600080fd5b610144610334565b604080519384526020840192909252908201526060015b60405180910390f35b610177610172366004610ff7565b6103bb565b60405161015b919061101b565b61019761019236600461105f565b610434565b60405161015b919061109c565b6101b76101b236600461105f565b6104d9565b005b6001546001600160a01b03165b6040516001600160a01b03909116815260200161015b565b6003546101c6906001600160a01b031681565b6101f96106c8565b60405190815260200161015b565b6101b761073b565b6001546101c6906001600160a01b031681565b6000546001600160a01b03166101c6565b6002546001600160a01b03166101c6565b61024c61074f565b604080519687526020870195909552938501929092526060840152608083015260a082015260c00161015b565b6101b761028736600461105f565b6107e2565b6101f9610958565b6101b76102a236600461105f565b6109a2565b6003546001600160a01b03166101c6565b6101f96102c636600461112a565b610acd565b6002546101c6906001600160a01b031681565b6102f16102ec36600461105f565b610df0565b604051901515815260200161015b565b6101b761030f366004610ff7565b610e5e565b61032761032236600461105f565b610ea1565b60405161015b9190611162565b6000806000600160009054906101000a90046001600160a01b03166001600160a01b031663136d88836040518163ffffffff1660e01b8152600401606060405180830381865afa15801561038c573d6000803e3d6000fd5b505050506040513d601f19601f820116820180604052508101906103b091906111cc565b925092509250909192565b600154604051630356df1160e31b81526001600160a01b0383811660048301526060921690631ab6f88890602401600060405180830381865afa158015610406573d6000803e3d6000fd5b505050506040513d6000823e601f3d908101601f1916820160405261042e919081019061126a565b92915050565b6040805160e0810182526000808252602082018190528183018190526060808301526080820181905260a0820181905260c08201526001549151632de5aaf760e01b81526004810184905290916001600160a01b031690632de5aaf790602401600060405180830381865afa1580156104b1573d6000803e3d6000fd5b505050506040513d6000823e601f3d908101601f1916820160405261042e919081019061139c565b60025460405163f729cf0d60e01b8152600481018390526000916001600160a01b03169063f729cf0d9060240160c060405180830381865afa158015610523573d6000803e3d6000fd5b505050506040513d601f19601f82011682018060405250810190610547919061145d565b60408101519091506001600160a01b03166105755760405163c0a8563160e01b815260040160405180910390fd5b60015460208201516040516233950960e01b815260048101919091526000916001600160a01b0316906233950990602401602060405180830381865afa1580156105c3573d6000803e3d6000fd5b505050506040513d601f19601f820116820180604052508101906105e791906114ec565b600254604051639350341960e01b8152600481018690526001600160a01b0380841660248301529293509116906393503419906044015b600060405180830381600087803b15801561063857600080fd5b505af115801561064c573d6000803e3d6000fd5b505060015460208501516060860151604051631ecdadd360e01b81526001600160a01b039093169450631ecdadd3935061069192600401918252602082015260400190565b600060405180830381600087803b1580156106ab57600080fd5b505af11580156106bf573d6000803e3d6000fd5b50505050505050565b6002546040805163d288953160e01b815290516000926001600160a01b03169163d28895319160048083019260209291908290030181865afa158015610712573d6000803e3d6000fd5b505050506040513d601f19601f820116820180604052508101906107369190611509565b905090565b610743610f16565b61074d6000610f43565b565b600080600080600080600260009054906101000a90046001600160a01b03166001600160a01b031663acff2b096040518163ffffffff1660e01b815260040160c060405180830381865afa1580156107ab573d6000803e3d6000fd5b505050506040513d601f19601f820116820180604052508101906107cf9190611522565b949b939a50919850965094509092509050565b60025460405163f729cf0d60e01b8152600481018390526000916001600160a01b03169063f729cf0d9060240160c060405180830381865afa15801561082c573d6000803e3d6000fd5b505050506040513d601f19601f82011682018060405250810190610850919061145d565b60408101519091506001600160a01b031661087e5760405163c0a8563160e01b815260040160405180910390fd5b60408101516001600160a01b031633146108ab576040516325adc7ab60e11b815260040160405180910390fd5b60015460208201516040516233950960e01b815260048101919091526000916001600160a01b0316906233950990602401602060405180830381865afa1580156108f9573d6000803e3d6000fd5b505050506040513d601f19601f8201168201806040525081019061091d91906114ec565b600254604051639cb10f0160e01b8152600481018690526001600160a01b038084166024830152929350911690639cb10f019060440161061e565b60015460408051632df704a160e21b815290516000926001600160a01b03169163b7dc12849160048083019260209291908290030181865afa158015610712573d6000803e3d6000fd5b60025460405163f729cf0d60e01b8152600481018390526000916001600160a01b03169063f729cf0d9060240160c060405180830381865afa1580156109ec573d6000803e3d6000fd5b505050506040513d601f19601f82011682018060405250810190610a10919061145d565b60408101519091506001600160a01b0316610a3e5760405163c0a8563160e01b815260040160405180910390fd5b60408101516001600160a01b03163314610a6b576040516325adc7ab60e11b815260040160405180910390fd5b60025460405163ba3f544360e01b8152600481018490526001600160a01b039091169063ba3f544390602401600060405180830381600087803b158015610ab157600080fd5b505af1158015610ac5573d6000803e3d6000fd5b505050505050565b6001546040516314d1bb3960e31b81526004810184905260009182916001600160a01b039091169063a68dd9c890602401602060405180830381865afa158015610b1b573d6000803e3d6000fd5b505050506040513d601f19601f82011682018060405250810190610b3f91906114ec565b90506001600160a01b038116610b685760405163e93ba22360e01b815260040160405180910390fd5b600154604051631c9696c760e11b8152600481018690526001600160a01b039091169063392d2d8e90602401602060405180830381865afa158015610bb1573d6000803e3d6000fd5b505050506040513d601f19601f82011682018060405250810190610bd5919061156c565b610bf257604051632437e77160e11b815260040160405180910390fd5b336001600160a01b03821603610c1b576040516309d135c360e21b815260040160405180910390fd5b600154604051632faf35e160e11b8152600481018690526000916001600160a01b031690635f5e6bc290602401602060405180830381865afa158015610c65573d6000803e3d6000fd5b505050506040513d601f19601f82011682018060405250810190610c899190611509565b600354600254604051636eb1769f60e11b81523360048201526001600160a01b039182166024820152929350839291169063dd62ed3e90604401602060405180830381865afa158015610ce0573d6000803e3d6000fd5b505050506040513d601f19601f82011682018060405250810190610d049190611509565b1015610d23576040516313be252b60e01b815260040160405180910390fd5b60025460405163c129062d60e01b81526004810186905260248101879052336044820152606481018390526001600160a01b039091169063c129062d906084016020604051808303816000875af1158015610d82573d6000803e3d6000fd5b505050506040513d601f19601f82011682018060405250810190610da69190611509565b60408051338152602081018490529194508691869186917fbe824e11bed3fc102d8fd20705a642831b558026b0b6d5c1c6dd0de3d99c5d53910160405180910390a4505092915050565b6002546040516375635bdb60e11b8152600481018390526000916001600160a01b03169063eac6b7b690602401602060405180830381865afa158015610e3a573d6000803e3d6000fd5b505050506040513d601f19601f8201168201806040525081019061042e919061156c565b610e66610f16565b6001600160a01b038116610e9557604051631e4fbdf760e01b8152600060048201526024015b60405180910390fd5b610e9e81610f43565b50565b610ea9610f93565b60025460405163f729cf0d60e01b8152600481018490526001600160a01b039091169063f729cf0d9060240160c060405180830381865afa158015610ef2573d6000803e3d6000fd5b505050506040513d601f19601f8201168201806040525081019061042e919061145d565b6000546001600160a01b0316331461074d5760405163118cdaa760e01b8152336004820152602401610e8c565b600080546001600160a01b038381166001600160a01b0319831681178455604051919092169283917f8be0079c531659141344cd1fd0a4f28419497f9722a3daafe3b4186f6b6457e09190a35050565b6040518060c00160405280600081526020016000815260200160006001600160a01b03168152602001600081526020016000815260200160006003811115610fdd57610fdd61114c565b905290565b6001600160a01b0381168114610e9e57600080fd5b60006020828403121561100957600080fd5b813561101481610fe2565b9392505050565b6020808252825182820181905260009190848201906040850190845b8181101561105357835183529284019291840191600101611037565b50909695505050505050565b60006020828403121561107157600080fd5b5035919050565b60005b8381101561109357818101518382015260200161107b565b50506000910152565b60208152600060018060a01b038084511660208401528060208501511660408401525060408301516060830152606083015160e060808401528051806101008501526101206110f18282870160208601611078565b608086015180151560a0870152925060a086015160c0868101919091529095015160e0850152601f01601f191690920190920192915050565b6000806040838503121561113d57600080fd5b50508035926020909101359150565b634e487b7160e01b600052602160045260246000fd5b81518152602080830151908201526040808301516001600160a01b031690820152606080830151908201526080808301519082015260a082015160c0820190600481106111bf57634e487b7160e01b600052602160045260246000fd5b8060a08401525092915050565b6000806000606084860312156111e157600080fd5b8351925060208401519150604084015190509250925092565b634e487b7160e01b600052604160045260246000fd5b60405160e0810167ffffffffffffffff81118282101715611233576112336111fa565b60405290565b604051601f8201601f1916810167ffffffffffffffff81118282101715611262576112626111fa565b604052919050565b6000602080838503121561127d57600080fd5b825167ffffffffffffffff8082111561129557600080fd5b818501915085601f8301126112a957600080fd5b8151818111156112bb576112bb6111fa565b8060051b91506112cc848301611239565b81815291830184019184810190888411156112e657600080fd5b938501935b83851015611304578451825293850193908501906112eb565b98975050505050505050565b805161131b81610fe2565b919050565b600082601f83011261133157600080fd5b815167ffffffffffffffff81111561134b5761134b6111fa565b61135e601f8201601f1916602001611239565b81815284602083860101111561137357600080fd5b611384826020830160208701611078565b949350505050565b8051801515811461131b57600080fd5b6000602082840312156113ae57600080fd5b815167ffffffffffffffff808211156113c657600080fd5b9083019060e082860312156113da57600080fd5b6113e2611210565b6113eb83611310565b81526113f960208401611310565b60208201526040830151604082015260608301518281111561141a57600080fd5b61142687828601611320565b6060830152506114386080840161138c565b608082015260a083015160a082015260c083015160c082015280935050505092915050565b600060c0828403121561146f57600080fd5b60405160c0810181811067ffffffffffffffff82111715611492576114926111fa565b8060405250825181526020830151602082015260408301516114b381610fe2565b80604083015250606083015160608201526080830151608082015260a0830151600481106114e057600080fd5b60a08201529392505050565b6000602082840312156114fe57600080fd5b815161101481610fe2565b60006020828403121561151b57600080fd5b5051919050565b60008060008060008060c0878903121561153b57600080fd5b865195506020870151945060408701519350606087015192506080870151915060a087015190509295509295509295565b60006020828403121561157e57600080fd5b6110148261138c56fea2646970667358221220dffd51929fb16405c218beec95e3aff8e19547a719d2905cd8ee0679d0cb249564736f6c63430008140033",
  "devdoc": {
    "details": "Coordinates between AgentRegistry and AgentEscrow",
    "errors": {
      "OwnableInvalidOwner(address)": [
        {
          "details": "The owner is not a valid owner account. (eg. `address(0)`)"
        }
      ],
      "OwnableUnauthorizedAccount(address)": [
        {
          "details": "The caller account is not authorized to perform an operation."
        }
      ]
    },
    "kind": "dev",
    "methods": {
      "agentCount()": {
        "returns": {
          "_0": "Number of registered agents"
        }
      },
      "confirmJob(bytes32)": {
        "params": {
          "jobId": "ID of the job to confirm"
        }
      },
      "constructor": {
        "params": {
          "_escrow": "Address of the AgentEscrow contract",
          "_mneeToken": "Address of the MNEE token",
          "_registry": "Address of the AgentRegistry contract"
        }
      },
      "disputeJob(bytes32)": {
        "params": {
          "jobId": "ID of the job to dispute"
        }
      },
      "expireJob(bytes32)": {
        "details": "Anyone can call this after the timeout period",
        "params": {
          "jobId": "ID of the job to expire"
        }
      },
      "getAgent(uint256)": {
        "params": {
          "agentId": "ID of the agent"
        },
        "returns": {
          "_0": "Agent struct"
        }
      },
      "getAgentsByOwner(address)": {
        "params": {
          "owner": "Address of the owner"
        },
        "returns": {
          "_0": "Array of agent IDs"
        }
      },
      "getEscrow()": {
        "returns": {
          "_0": "Escrow contract address"
        }
      },
      "getEscrowStats()": {
        "returns": {
          "escrowBalance": "Current MNEE in escrow",
          "pending": "Current pending jobs",
          "totalCompleted": "Total jobs completed",
          "totalCreated": "Total jobs ever created",
          "totalDisputed": "Total jobs disputed",
          "totalExpired": "Total jobs expired"
        }
      },
      "getJob(bytes32)": {
        "params": {
          "jobId": "ID of the job"
        },
        "returns": {
          "_0": "Job struct"
        }
      },
      "getJobTimeout()": {
        "returns": {
          "_0": "Timeout in seconds"
        }
      },
      "getMneeToken()": {
        "returns": {
          "_0": "MNEE token contract address"
        }
      },
      "getPlatformStats()": {
        "returns": {
          "agentCount_": "Total registered agents",
          "totalEarnings": "Total MNEE earned",
          "totalJobs": "Total jobs completed"
        }
      },
      "getRegistry()": {
        "returns": {
          "_0": "Registry contract address"
        }
      },
      "isJobExpired(bytes32)": {
        "params": {
          "jobId": "ID of the job"
        },
        "returns": {
          "_0": "True if job can be expired"
        }
      },
      "owner()": {
        "details": "Returns the address of the current owner."
      },
      "renounceOwnership()": {
        "details": "Leaves the contract without owner. It will not be possible to call `onlyOwner` functions. Can only be called by the current owner. NOTE: Renouncing ownership will leave the contract without an owner, thereby disabling any functionality that is only available to the owner."
      },
      "requestService(uint256,uint256)": {
        "params": {
          "callerAgentId": "ID of the calling agent (0 if human caller)",
          "providerAgentId": "ID of the agent providing the service"
        },
        "returns": {
          "jobId": "Unique identifier for this job"
        }
      },
      "transferOwnership(address)": {
        "details": "Transfers ownership of the contract to a new account (`newOwner`). Can only be called by the current owner."
      }
    },
    "title": "AgentRouter",
    "version": 1
  },
  "userdoc": {
    "kind": "user",
    "methods": {
      "agentCount()": {
        "notice": "Get total agent count"
      },
      "confirmJob(bytes32)": {
        "notice": "Confirm job completion (releases MNEE to provider wallet)"
      },
      "constructor": {
        "notice": "Initialize the router with registry and escrow addresses"
      },
      "disputeJob(bytes32)": {
        "notice": "Dispute a job (refunds MNEE to caller)"
      },
      "expireJob(bytes32)": {
        "notice": "Expire a job after timeout (releases MNEE to provider wallet)"
      },
      "getAgent(uint256)": {
        "notice": "Get agent details"
      },
      "getAgentsByOwner(address)": {
        "notice": "Get agents by owner"
      },
      "getEscrow()": {
        "notice": "Get escrow address"
      },
      "getEscrowStats()": {
        "notice": "Get escrow statistics"
      },
      "getJob(bytes32)": {
        "notice": "Get job details"
      },
      "getJobTimeout()": {
        "notice": "Get the job timeout duration"
      },
      "getMneeToken()": {
        "notice": "Get MNEE token address"
      },
      "getPlatformStats()": {
        "notice": "Get platform statistics"
      },
      "getRegistry()": {
        "notice": "Get registry address"
      },
      "isJobExpired(bytes32)": {
        "notice": "Check if a job is expired"
      },
      "requestService(uint256,uint256)": {
        "notice": "Request a service from an agent (locks MNEE in escrow)"
      }
    },
    "notice": "Main entry point for the AgentPay protocol",
    "version": 1
  },
  "storageLayout": {
    "storage": [
      {
        "astId": 8,
        "contract": "contracts/AgentRouter.sol:AgentRouter",
        "label": "_owner",
        "offset": 0,
        "slot": "0",
        "type": "t_address"
      },
      {
        "astId": 1548,
        "contract": "contracts/AgentRouter.sol:AgentRouter",
        "label": "registry",
        "offset": 0,
        "slot": "1",
        "type": "t_contract(IAgentRegistry)2263"
      },
      {
        "astId": 1551,
        "contract": "contracts/AgentRouter.sol:AgentRouter",
        "label": "escrow",
        "offset": 0,
        "slot": "2",
        "type": "t_contract(IAgentEscrow)2135"
      },
      {
        "astId": 1554,
        "contract": "contracts/AgentRouter.sol:AgentRouter",
        "label": "mneeToken",
        "offset": 0,
        "slot": "3",
        "type": "t_contract(IERC20)315"
      }
    ],
    "types": {
      "t_address": {
        "encoding": "inplace",
        "label": "address",
        "numberOfBytes": "20"
      },
      "t_contract(IAgentEscrow)2135": {
        "encoding": "inplace",
        "label": "contract IAgentEscrow",
        "numberOfBytes": "20"
      },
      "t_contract(IAgentRegistry)2263": {
        "encoding": "inplace",
        "label": "contract IAgentRegistry",
        "numberOfBytes": "20"
      },
      "t_contract(IERC20)315": {
        "encoding": "inplace",
        "label": "contract IERC20",
        "numberOfBytes": "20"
      }
    }
  }
}